:020000040800F2
:1000000000040020C10100088112000881120008CC
:100010008112000881120008811200088112000874
:1000200081120008811200088112000801390008BD
:100030008112000881120008811200088112000854
:100040008112000881120008811200088112000844
:100050008112000881120008811200088112000834
:10006000811200088112000881120008215F000837
:10007000715F0008C15F000811600008616000083E
:10008000B160000801610008616700088112000882
:1000900081120008811200088112000881120008F4
:1000A00081120008811200088112000881120008E4
:1000B000D186000881120008811200088112000810
:1000C00081120008811200088112000881120008C4
:1000D00081120008618B000881120008811200085B
:1000E00081120008811200088112000881120008A4
:1000F0008112000881120008811200085161000875
:1001000081120008F17100088112000881120008B4
:10011000818B0008811200088112000881120008FA
:10012000A1610008F16100084162000891620008C5
:10013000E1620008D16A00088112000881120008FB
:10014000811200088112000881120008A17F0008B6
:100150003163000881630008D16300088112000840
:100160008112000881120008811200088112000823
:1001700081120008C17F0008811200088112000866
:100180008112000881120008811200088112000803
:1001900081120008811200088112000881120008F3
:1001A00081120008811200088112000881120008E3
:1001B00081120008811200088112000881120008D3
:1001C00072B6254880F30988022080F31488BFF3B3
:1001D0006F8F01F03DF808F04BFD20482049214A7F
:1001E00091423CBF41F8040BFFF7FABF1E491A4A7F
:1001F00091423CBF41F8040BFFF7FABF1B491C4A70
:100200001C4B9A423EBF51F8040B42F8040BFFF717
:10021000F8BF00201849194A91423CBF41F8040B2D
:10022000FFF7FABF01F01CF8154C164DAC4280F2F6
:10023000058054F8041B8847FFF7F8BF08F0E0FD7D
:10024000114C124DAC4280F2058054F8041B8847D3
:10025000FFF7F8BF01F00CB80008002055555555C0
:10026000000000200004002000040020009F00087F
:10027000000800200008002000080020307C00203A
:10028000C0010008C0010008C0010008C00100084A
:100290002DE9F04FC1F80CD0D0F80CD0BDE8F08FAC
:1002A00001F0EEFA02F044FC002383F311882846A3
:1002B000A047002002F02CFA02F032FC01F0C8FA4C
:1002C00001F0FEFF01F0DCFA02F032FC00DFFEE795
:1002D00081F0004102E000BF83F0004330B54FEAF7
:1002E00041044FEA430594EA050F08BF90EA020F64
:1002F0001FBF54EA000C55EA020C7FEA645C7FEAF7
:10030000655C00F0E2804FEA5454D4EB5555B8BF19
:100310006D420CDD2C4480EA020281EA030382EA8A
:10032000000083EA010180EA020281EA0303362D1C
:1003300088BF30BD11F0004F4FEA01314FF4801CEF
:100340004CEA113102D0404261EB410113F0004F01
:100350004FEA03334CEA133302D0524263EB4303B8
:1003600094EA050F00F0A780A4F10104D5F1200E56
:100370000DDB02FA0EFC22FA05F2801841F10001B1
:1003800003FA0EF2801843FA05F359410EE0A5F185
:1003900020050EF1200E012A03FA0EFC28BF4CF0B6
:1003A000020C43FA05F3C01851EBE37101F000456C
:1003B00007D54FF0000EDCF1000C7EEB00006EEB79
:1003C0000101B1F5801F1BD3B1F5001F0CD3490803
:1003D0005FEA30004FEA3C0C04F101044FEA44525A
:1003E00012F5800F80F09A80BCF1004F08BF5FEAE1
:1003F000500C50F1000041EB045141EA050130BDC1
:100400005FEA4C0C404141EB010111F4801FA4F163
:100410000104E9D191F0000F04BF01460020B1FAB8
:1004200081F308BF2033A3F10B03B3F120020CDAF0
:100430000C3208DD02F1140CC2F10C0201FA0CF0CE
:1004400021FA02F10CE002F11402D8BFC2F1200C33
:1004500001FA02F120FA0CFCDCBF41EA0C019040E9
:10046000E41AA2BF01EB0451294330BD6FEA040432
:100470001F3C1CDA0C340EDC04F11404C4F120021D
:1004800020FA04F001FA02F340EA030021FA04F32F
:1004900045EA030130BDC4F10C04C4F1200220FA86
:1004A00002F001FA04F340EA0300294630BD21FAC4
:1004B00004F0294630BD94F0000F83F4801306BF8A
:1004C00081F480110134013D4EE77FEA645C18BF7E
:1004D0007FEA655C29D094EA050F08BF90EA020F15
:1004E00005D054EA000C04BF1946104630BD91EA0D
:1004F000030F1EBF0021002030BD5FEA545C05D110
:100500004000494128BF41F0004130BD14F580044E
:100510003CBF01F5801130BD01F0004545F0FE41C2
:1005200041F470014FF0000030BD7FEA645C1ABFF7
:10053000194610467FEA655C1CBF0B46024650EA2E
:10054000013406BF52EA033591EA030F41F400215A
:1005500030BD00BF90F0000F04BF0021704730B5E0
:100560004FF4806404F132044FF000054FF00001B5
:1005700050E700BF90F0000F04BF0021704730B576
:100580004FF4806404F1320410F0004548BF40424B
:100590004FF000013EE700BF42004FEAE2014FEAA0
:1005A00031014FEA02701FBF12F07F4393F07F4F7B
:1005B00081F06051704792F0000F14BF93F07F4FAD
:1005C000704730B54FF4607401F0004521F00041F0
:1005D00020E700BF50EA010208BF704730B54FF076
:1005E00000050AE050EA010208BF704730B511F07B
:1005F000004502D5404261EB41014FF4806404F1B3
:1006000032045FEA915C3FF4DCAE4FF003025FEA34
:10061000DC0C18BF03325FEADC0C18BF033202EBBC
:10062000DC02C2F1200300FA03FC20FA02F001FA16
:1006300003FE40EA0E0021FA02F11444C1E600BFB5
:1006400070B54FF0FF0C4CF4E06C1CEA11541DBF68
:100650001CEA135594EA0C0F95EA0C0F00F0DEF833
:100660002C4481EA030621EA4C5123EA4C5350EA18
:10067000013518BF52EA033541F4801143F4801369
:1006800038D0A0FB02CE4FF00005E1FB02E506F0FA
:100690000042E0FB03E54FF00006E1FB03569CF04F
:1006A000000F18BF4EF0010EA4F1FF04B6F5007F55
:1006B00064F5407404D25FEA4E0E6D4146EB0606C7
:1006C00042EAC62141EA55514FEAC52040EA5E5050
:1006D0004FEACE2EB4F1FD0C88BFBCF5E06F1ED8FA
:1006E000BEF1004F08BF5FEA500E50F1000041EB31
:1006F000045170BD06F0004646EA010140EA0200DE
:1007000081EA0301B4EB5C04C2BFD4EB0C0541EAFF
:10071000045170BD41F480114FF0000E013C00F314
:10072000AB8014F1360FDEBF002001F0004170BD38
:10073000C4F10004203C35DA0C341BDC04F1140451
:10074000C4F1200500FA05F320FA04F001FA05F2DD
:1007500040EA020001F0004221F0004110EBD370AA
:1007600021FA04F642EB06015EEA430E08BF20EAD6
:10077000D37070BDC4F10C04C4F1200500FA04F379
:1007800020FA05F001FA04F240EA020001F000410B
:1007900010EBD37041F100015EEA430E08BF20EA7E
:1007A000D37070BDC4F1200500FA05F24EEA020EC6
:1007B00020FA04F301FA05F243EA020321FA04F0F5
:1007C00001F0004121FA04F220EA020000EBD370AC
:1007D0005EEA430E08BF20EAD37070BD94F0000FAC
:1007E0000FD101F00046400041EB010111F4801FE0
:1007F00008BF013CF7D041EA060195F0000F18BF91
:10080000704703F00046520043EB030313F4801FCC
:1008100008BF013DF7D043EA0603704794EA0C0F86
:100820000CEA135518BF95EA0C0F0CD050EA41069C
:1008300018BF52EA4306D1D181EA030101F0004119
:100840004FF0000070BD50EA410606BF1046194641
:1008500052EA430619D094EA0C0F02D150EA01364D
:1008600013D195EA0C0F05D152EA03361CBF10468E
:1008700019460AD181EA030101F0004141F0FE412D
:1008800041F470014FF0000070BD41F0FE4141F4B1
:10089000780170BD70B54FF0FF0C4CF4E06C1CEAB1
:1008A00011541DBF1CEA135594EA0C0F95EA0C0F66
:1008B00000F0A7F8A4EB050481EA030E52EA033521
:1008C0004FEA013100F088804FEA03334FF0805542
:1008D00045EA131343EA12634FEA022245EA11156F
:1008E00045EA10654FEA00260EF000419D4208BF20
:1008F000964244F1FD0404F5407402D25B084FEACD
:100900003202B61A65EB03055B084FEA32024FF478
:1009100080104FF4002CB6EB020E75EB030E22BFD5
:10092000B61A754640EA0C005B084FEA3202B6EB95
:10093000020E75EB030E22BFB61A754640EA5C0044
:100940005B084FEA3202B6EB020E75EB030E22BFD4
:10095000B61A754640EA9C005B084FEA3202B6EBD5
:10096000020E75EB030E22BFB61A754640EADC0094
:1009700055EA060E18D04FEA051545EA16754FEAF6
:1009800006164FEAC30343EA52734FEAC2025FEA14
:100990001C1CC0D111F4801F0BD141EA00014FF0A3
:1009A00000004FF0004CB6E711F4801F04BF014374
:1009B0000020B4F1FD0C88BFBCF5E06F3FF6AFAE90
:1009C000B5EB030C04BFB6EB020C5FEA500C50F120
:1009D000000041EB045170BD0EF0004E4EEA1131A3
:1009E00014EB5C04C2BFD4EB0C0541EA045170BDAA
:1009F00041F480114FF0000E013C90E645EA060EEE
:100A00008DE60CEA135594EA0C0F08BF95EA0C0F1B
:100A10003FF43BAF94EA0C0F0AD150EA01347FF463
:100A200034AF95EA0C0F7FF425AF104619462CE73A
:100A300095EA0C0F06D152EA03353FF4FDAE10469D
:100A4000194622E750EA410618BF52EA43067FF4EE
:100A5000C5AE50EA41047FF40DAF52EA43057FF47E
:100A6000EBAE12E7000000000000000000000000F4
:100A70004FEA410212F5001215D211D56FF47873C6
:100A8000B3EB625212D94FEAC12343F0004343EA69
:100A9000505311F0004F23FA02F018BF4042704744
:100AA0004FF00000704750EA013005D111F00040CE
:100AB00008BF6FF0004070474FF00000704700BF64
:100AC0004FEA4102B2F1E04324BFB3F5001CDCF170
:100AD000FE5C0DD901F0004C4FEAC0024CEA5070A8
:100AE000B2F1004F40EB830008BF20F001007047D7
:100AF00011F0804F21D113F13872BCBF01F00040DA
:100B0000704741F480114FEA5252C2F11802C2F10B
:100B1000200C10FA0CF320FA02F018BF40F001008C
:100B20004FEAC1234FEAD32303FA0CFC40EA0C003E
:100B300023FA02F34FEA4303CCE77FEA625307D17B
:100B400050EA01331EBF4FF0FE4040F440007047B2
:100B500001F0004040F0FE4040F40000704700BF4C
:100B600080F0004002E000BF81F0004142001FBF62
:100B70005FEA410392EA030F7FEA226C7FEA236C6B
:100B80006AD04FEA1262D2EB1363C1BFD218414060
:100B900048404140B8BF5B42192B88BF704710F0F6
:100BA000004F40F4000020F07F4018BF404211F099
:100BB000004F41F4000121F07F4118BF494292EA01
:100BC000030F3FD0A2F1010241FA03FC10EB0C002D
:100BD000C3F1200301FA03F100F0004302D54942BA
:100BE00060EB4000B0F5000F13D3B0F1807F06D367
:100BF00040084FEA310102F10102FE2A51D2B1F15F
:100C0000004F40EBC25008BF20F0010040EA030053
:100C10007047490040EB000010F4000FA2F1010200
:100C2000EDD1B0FA80FCACF1080CB2EB0C0200FA8A
:100C30000CF0AABF00EBC25052421843BCBFD040D8
:100C40001843704792F0000F81F4000106BF80F452
:100C500000000132013BB5E74FEA41037FEA226C15
:100C600018BF7FEA236C21D092EA030F04D092F0E0
:100C7000000F08BF0846704790EA010F1CBF002014
:100C8000704712F07F4F04D1400028BF40F0004071
:100C9000704712F100723CBF00F50000704700F091
:100CA000004343F0FE4040F4000070477FEA2262B8
:100CB00016BF08467FEA23630146420206BF5FEA89
:100CC000412390EA010F40F4800070474FF0000389
:100CD00004E000BF10F0004348BF40425FEA000C50
:100CE00008BF704743F0964301464FF000001CE0F8
:100CF00050EA010208BF70474FF000030AE000BF4E
:100D000050EA010208BF704711F0004302D540428B
:100D100061EB41015FEA010C02BF844601460020FD
:100D200043F0B64308BFA3F18053A3F50003BCFA18
:100D30008CF2083AA3EBC25310DB01FA02FC6344C5
:100D400000FA02FCC2F12002BCF1004F20FA02F2CC
:100D500043EB020008BF20F00100704702F12002BF
:100D600001FA02FCC2F1200250EA4C0021FA02F220
:100D700043EB020008BF20EADC707047000000006F
:100D80004FF0FF0C1CEAD0521EBF1CEAD15392EA6E
:100D90000C0F93EA0C0F6FD01A4480EA010C40024A
:100DA00018BF5FEA41211ED04FF0006343EA5010A4
:100DB00043EA5111A0FB01310CF00040B1F5000FE6
:100DC0003EBF490041EAD3715B0040EA010062F195
:100DD0007F02FD2A1DD8B3F1004F40EBC25008BF7F
:100DE00020F00100704790F0000F0CF0004C08BF9D
:100DF00049024CEA502040EA51207F3AC2BFD2F16A
:100E0000FF0340EAC250704740F400004FF0000377
:100E1000013A5DDC12F1190FDCBF00F000407047B1
:100E2000C2F10002410021FA02F1C2F1200200FAEF
:100E300002FC5FEA310040F1000053EA4C0308BFB6
:100E400020EADC70704792F0000F00F0004C02BF07
:100E5000400010F4000F013AF9D040EA0C0093F082
:100E6000000F01F0004C02BF490011F4000F013BDC
:100E7000F9D041EA0C018FE70CEAD15392EA0C0F4A
:100E800018BF93EA0C0F0AD030F0004C18BF31F0B5
:100E9000004CD8D180EA010000F00040704790F08B
:100EA000000F17BF90F0004F084691F0000F91F02F
:100EB000004F14D092EA0C0F01D142020FD193EAF5
:100EC0000C0F03D14B0218BF084608D180EA01007D
:100ED00000F0004040F0FE4040F40000704740F059
:100EE000FE4040F4400070474FF0FF0C1CEAD05227
:100EF0001EBF1CEAD15392EA0C0F93EA0C0F69D083
:100F0000A2EB030280EA010C49024FEA402037D0ED
:100F10004FF0805343EA111143EA10130CF00040E4
:100F20008B4238BF5B0042F17D024FF4000C8B42D4
:100F300024BF5B1A40EA0C00B3EB510F24BFA3EBB4
:100F4000510340EA5C00B3EB910F24BFA3EB910384
:100F500040EA9C00B3EBD10F24BFA3EBD10340EADE
:100F6000DC001B0118BF5FEA1C1CE0D1FD2A3FF624
:100F700050AF8B4240EBC25008BF20F001007047D9
:100F80000CF0004C4CEA50207F32C2BFD2F1FF037C
:100F900040EAC250704740F400004FF00003013AAD
:100FA00037E792F0000F00F0004C02BF400010F451
:100FB000000F013AF9D040EA0C0093F0000F01F065
:100FC000004C02BF490011F4000F013BF9D041EA87
:100FD0000C0195E70CEAD15392EA0C0F08D14202BA
:100FE0007FF47DAF93EA0C0F7FF470AF084676E78D
:100FF00093EA0C0F04D14B023FF44CAF08466EE766
:1010000030F0004C18BF31F0004CCAD130F0004233
:101010007FF45CAF31F000437FF43CAF5FE700BF8B
:101020004FF0FF3C06E000BF4FF0010C02E000BFB4
:101030004FF0010C4DF804CD4FEA40024FEA410356
:101040007FEA226C18BF7FEA236C11D001B052EA0C
:10105000530C18BF90EA010F58BFB2EB030088BFD2
:10106000C81738BF6FEAE17018BF40F00100704741
:101070007FEA226C02D15FEA402C05D17FEA236C23
:10108000E4D15FEA412CE1D05DF8040B704700BF6A
:10109000844608466146FFE70FB5FFF7C9FF002801
:1010A00048BF10F1000F0FBD4DF808EDFFF7F4FF3A
:1010B0000CBF012000205DF808FB00BF4DF808EDD3
:1010C000FFF7EAFF34BF012000205DF808FB00BFF6
:1010D0004DF808EDFFF7E0FF94BF012000205DF818
:1010E00008FB00BF4DF808EDFFF7D2FF94BF0120C9
:1010F00000205DF808FB00BF4DF808EDFFF7C8FFC2
:1011000034BF012000205DF808FB00BF0000000094
:10111000844641EA000313F003036DD1403A41D302
:1011200051F8043B40F8043B51F8043B40F8043BC1
:1011300051F8043B40F8043B51F8043B40F8043BB1
:1011400051F8043B40F8043B51F8043B40F8043BA1
:1011500051F8043B40F8043B51F8043B40F8043B91
:1011600051F8043B40F8043B51F8043B40F8043B81
:1011700051F8043B40F8043B51F8043B40F8043B71
:1011800051F8043B40F8043B51F8043B40F8043B61
:1011900051F8043B40F8043B51F8043B40F8043B51
:1011A000403ABDD2303211D351F8043B40F8043BF1
:1011B00051F8043B40F8043B51F8043B40F8043B31
:1011C00051F8043B40F8043B103AEDD20C3205D301
:1011D00051F8043B40F8043B043AF9D2043208D0F9
:1011E000D2071CBF11F8013B00F8013B01D30B886B
:1011F00003806046704700BF082A13D38B078DD049
:1012000010F003038AD0C3F10403D21ADB071CBF1A
:1012100011F8013B00F8013B80D331F8023B20F884
:10122000023B7BE7043AD9D3013A11F8013B00F8BD
:10123000013BF9D20B7803704B7843708B78837045
:101240006046704700000000000000000000000041
:1012500080B400AFBD465DF8047B7047AFF30080FB
:1012600080B400AFBD465DF8047B7047AFF30080EB
:1012700080B400AFFEE700BFAFF30080AFF30080A3
:1012800080B400AFFEE700BFAFF30080AFF3008093
:1012900080B485B000AF78607B6803F00703FB6023
:1012A0000C4BDB68BB60BA684FF6FF031340BB60B2
:1012B000FB681A02BB68134343F0BF6343F4003377
:1012C000BB60044BBA68DA601437BD465DF8047B36
:1012D000704700BF00ED00E0AFF30080AFF3008087
:1012E00080B483B000AF03463960FB7197F90730D3
:1012F000002B0BDA0D49FB7903F00F03043B3A682E
:10130000D2B21201D2B20B441A7609E0084997F919
:1013100007303A68D2B21201D2B20B4483F80023EC
:101320000C37BD465DF8047B704700BF00ED00E060
:1013300000E100E0AFF30080AFF30080AFF3008086
:1013400080B500AF0E4B00229A600320FFF7A0FF8C
:101350000C4B0C4AD26842F08072DA600A4B0A4A9F
:10136000126842F001021A606FF004000121FFF7D9
:10137000B7FF6FF001000221FFF7B2FF80BD00BF91
:1013800000ED00E0F0ED00E0001000E0AFF30080C1
:1013900080B483B000AF20237B607B6883F3118827
:1013A0000C37BD465DF8047B704700BFAFF300808B
:1013B00080B483B000AF00237B607B6883F3118827
:1013C0000C37BD465DF8047B704700BFAFF300806B
:1013D00080B500AFFFF7DCFF80BD00BFAFF300803A
:1013E00080B500AFFFF7E4FF80BD00BFAFF3008022
:1013F00080B400AF72B6BD465DF8047B704700BF95
:1014000080B483B000AF00237B607B6883F31188D6
:1014100062B60C37BD465DF8047B7047AFF30080C1
:1014200080B400AFBD465DF8047B7047AFF3008029
:1014300080B400AF034B5B681846BD465DF8047B83
:10144000704700BF001000E0AFF30080AFF30080F2
:1014500080B400AF4FF080435B6A1846BD465DF82C
:10146000047B7047AFF30080AFF30080AFF30080E0
:1014700080B500AF03F084FC80BD00BFAFF30080F7
:1014800080B582B000AF7860786803F081FC0837DF
:10149000BD4680BDAFF30080AFF30080AFF30080A6
:1014A00080B500AFFFF7D4FF0346184680BD00BFEC
:1014B00080B500AF00F0B4F9FFF7A2FF80BD00BF18
:1014C00080B500AFFFF784FF01F03AFB00F0F0F9C0
:1014D00080BD00BFAFF30080AFF30080AFF30080AA
:1014E00080B500AF00F0FCF901F032FBFFF778FFA8
:1014F00080BD00BFAFF30080AFF30080AFF300808A
:1015000080B500AFFFF7CCFF0346184680BD00BF93
:1015100080B584B000AF00F03BFA334BDB69FB6071
:10152000FFF7EEFFB8602AE02F4B9A6AFB689B68D2
:101530001A442D4B9A62FB681B682C4A5A60FB6860
:101540001A68294BDA61FB68DB683B60FB680022A4
:10155000DA60254BDA69254B9A4201D1FFF788FF03
:10156000FFF7BEFFFB681A693B6810469847FFF714
:10157000A7FF1D4BDB69FB60FFF7C2FFB860FB688C
:101580009A68194B9B6AB968CB1A9A42CCD9164B08
:10159000DA69164B9A4200D123E0134B9A6AFB6832
:1015A0009B681A44BB68D31A7B607B68012B01D807
:1015B00002237B60BA687B6813441846FFF760FF1C
:1015C000FFF79EFF0246084B9B6AD21AB9687B68F8
:1015D0001944054B9B6ACB1A9A4202D9044800F081
:1015E0007FF81037BD4680BD000800201C08002091
:1015F00040980008AFF30080AFF30080AFF30080A5
:1016000080B483B000AF7860044B9B697A689A61BC
:101610000C37BD465DF8047B704700BF0008002012
:1016200080B483B000AF786039607B683A689A61B3
:101630000C37BD465DF8047B704700BFAFF30080F8
:1016400080B582B000AF7860FFF7EAFEFCE700BF2C
:1016500080B584B002AFFFF773FE00F051FC00F0DC
:1016600057FA01F095F902F023F802F089F801F039
:101670000FFA00F0BDF91348402100F061FF024667
:10168000114B9A61104B9B69012283F820200E4B6D
:101690009B690E4ADA61FFF70BFF0D48FFF7B0FFB9
:1016A000002300930B484FF4807101220A4B00F095
:1016B000EFFF786078680949FFF7B2FF0837BD4649
:1016C00080BD00BF400C0020000800200004002066
:1016D00000990008E80C002041160008A0960008B8
:1016E00080B582B000AF7860FFF782FE014B7A6868
:1016F000DA62FEE700080020AFF30080AFF300805D
:1017000080B500AF00F044F9FFF702FF80BD00BFD5
:1017100080B485B000AFF860B9607A60FA68BB68E1
:10172000D21A7968BB68CB1A9A422CBF00230123D6
:10173000DBB218461437BD465DF8047B704700BF26
:1017400080B584B000AF7860FFF772FEF860FA6889
:101750007B681344BB6000BFFFF76AFE0346184670
:10176000F968BA68FFF7D4FF0346002BF4D11037AD
:10177000BD4680BDAFF30080AFF30080AFF30080C3
:1017800080B483B000AF20237B607B6883F3118833
:101790000C37BD465DF8047B704700BFAFF3008097
:1017A00080B483B000AF00237B607B6883F3118833
:1017B0000C37BD465DF8047B704700BFAFF3008077
:1017C00080B500AFFFF7DCFF80BD00BFAFF3008046
:1017D00080B500AFFFF7E4FF80BD00BFAFF300802E
:1017E00080B400AF4FF080435B6A1846BD465DF899
:1017F000047B7047AFF30080AFF30080AFF300804D
:1018000080B500AFFFF7ECFF0346184680BD00BF70
:1018100080B500AFFFF7F4FF0346184680BD00BF58
:1018200080B500AF054B1B6B002B03D1034B5B6BEB
:10183000002B02D00248FFF753FF80BD00080020B4
:10184000C0960008AFF30080AFF30080AFF30080D4
:1018500080B500AF074B1B6B002B03D1054B5B6BB7
:10186000002B02D00448FFF73BFF024B01225A63D2
:1018700080BD00BF00080020C8960008AFF30080BC
:1018800080B500AF074B1B6B002B03D1054B5B6B87
:10189000002B02DC0448FFF723FF024B00225A63AF
:1018A00080BD00BF00080020D0960008AFF3008084
:1018B00080B500AF074B1B6B002B03DD054B5B6B4B
:1018C000002B02D00448FFF70BFF024B01225A63A2
:1018D00080BD00BF00080020D8960008AFF300804C
:1018E00080B500AF074B1B6B002B03DD054B5B6B1B
:1018F000002B02DC0448FFF7F3FE024B00225A6380
:1019000080BD00BF00080020E0960008AFF3008013
:1019100080B500AFFFF754FF094B1B6B002B03DBB7
:10192000074B5B6B002B02D00648FFF7D9FE044B38
:101930001B6B5A1C024B1A63FFF74AFF80BD00BFA6
:1019400000080020E8960008AFF30080AFF30080A5
:1019500080B500AFFFF734FF094B1B6B002B03DD95
:10196000074B5B6B002B02D00648FFF7B9FE044B18
:101970001B6B5A1E024B1A63FFF72AFF80BD00BF84
:1019800000080020F0960008AFF30080AFF300805D
:1019900080B500AF054B1B6B002B03DB034B5B6B70
:1019A000002B02DC0248FFF79BFE80BD00080020F0
:1019B000F8960008AFF30080AFF30080AFF300802B
:1019C00080B500AF054B1B6B002B03D1034B5B6B4A
:1019D000002B02DC0248FFF783FE80BD00080020D8
:1019E00000970008AFF30080AFF30080AFF30080F2
:1019F00080B400AF044B40229A63034B034ADA637E
:101A0000BD465DF8047B70470008002040080020B8
:101A100090B583B000AF7860134BDC6BFFF7F8FE36
:101A200003462360104BDB6B0F4A92695A600E4BE2
:101A3000DB6B7A68526A9A600B4BDB6B7A6892F8C0
:101A400020201A73084BDB6B03F11002064BDA639C
:101A5000054BDA6B054B9A4202D3034B044ADA6317
:101A60000C37BD4690BD00BF00080020400C002090
:101A700040080020AFF30080AFF30080AFF3008098
:101A800080B400AF4FF080435B6A1846BD465DF8F6
:101A9000047B7047AFF30080AFF30080AFF30080AA
:101AA00080B582B000AF7860786803F051F90837EC
:101AB000BD4680BDAFF30080AFF30080AFF3008080
:101AC00080B500AF03F05CF980BD00BFAFF30080CC
:101AD00080B582B000AF7860786803F059F90837B4
:101AE000BD4680BDAFF30080AFF30080AFF3008050
:101AF00080B500AFFFF7C4FF0346184680BD00BFA6
:101B000080B500AFFFF7F4FF0346184680BD00BF65
:101B100080B400AF084B094ADA61074B074A1A62E2
:101B2000054B4FF0FF325A62034B00229A62BD46CA
:101B30005DF8047B704700BF000800201C080020EF
:101B400080B588B000AFF860B9607A603B60FFF79D
:101B50001FFFFB68002B05D07B68002B02D0BB6801
:101B6000002B02D13948FFF7BBFDFB683A681A61C8
:101B7000FB687A68DA60FFF7C3FF7861BB68012B06
:101B800001D80223BB60324BDA69324B9A4219D139
:101B90002F4B7A699A622E4BFA68DA612C4BFA68FD
:101BA0001A62FB682B4A1A60FB682A4A5A60FB6873
:101BB000BA689A60264B9A6ABB6813441846FFF7C6
:101BC0006FFF40E07A69BB681A44214B9B6AD31AC5
:101BD000BB611F4BDB699A68BB699A4206D91C4BF3
:101BE0009A6ABB6913441846FFF772FF184BDB690A
:101BF000FB6107E0FB699B68BA69D31ABB61FB69AB
:101C00001B68FB61FB699A68BB699A42F2D3FB6867
:101C1000FA691A60FB681B685A68FB685A60FB68BF
:101C20005B68FA681A60FB69FA685A60FB68BA690F
:101C30009A60FB699A68BB69D21AFB699A60044B87
:101C40004FF0FF325A622037BD4680BD50980008E1
:101C5000000800201C080020AFF30080AFF30080D4
:101C600080B584B000AF7860FFF792FE7B68002BF0
:101C700002D13648FFF734FD7B68DB68002B02D1C8
:101C80003248FFF72DFD324BDA697B689A421CD04F
:101C90007B685B687A6812681A607B681B687A6880
:101CA00052685A607B680022DA607B681A68294BA8
:101CB0009A4209D07B681B687A68126891687A68D2
:101CC00092680A449A603EE03DE07B681A68204BC7
:101CD000DA611F4BDB691F4A5A607B680022DA60B9
:101CE0001B4BDA691B4B9A4202D1FFF7E9FE2AE04F
:101CF000174BDB69164AD26991687A6892680A4480
:101D00009A60FFF7FDFE0246114B9B6AD31ABB6037
:101D10000F4BDB699A68BB689A4200D813E00C4B02
:101D2000DB699A68BB68D31AFB60FB68012B01D89A
:101D30000223FB60064B9A6ABB681A44FB68134493
:101D40001846FFF7C5FE1037BD4680BD60980008F5
:101D5000000800201C080020AFF30080AFF30080D3
:101D600080B483B000AF20237B607B6883F311884D
:101D70000C37BD465DF8047B704700BFAFF30080B1
:101D800080B483B000AF00237B607B6883F311884D
:101D90000C37BD465DF8047B704700BFAFF3008091
:101DA00080B500AFFFF7DCFF80BD00BFAFF3008060
:101DB00080B500AFFFF7E4FF80BD00BFAFF3008048
:101DC00080B483B000AF78607B687A681A607B6803
:101DD0007A685A600C37BD465DF8047B704700BFD7
:101DE00080B485B000AF78607B681B68FB60FB68DF
:101DF0001A687B681A607B681B687A685A60FB689F
:101E000018461437BD465DF8047B7047AFF3008079
:101E100080B483B000AF78607B685B687A681268D2
:101E20001A607B681B687A6852685A607B6818463B
:101E30000C37BD465DF8047B704700BFAFF30080F0
:101E400080B500AFFFF7A4FD064B1B689A68054BF1
:101E50009B699B689A4294BF00230123DBB218461A
:101E600080BD00BF00080020AFF30080AFF300800A
:101E700080B500AFFFF794FF00F062FEFFF718FD9A
:101E800080BD00BFAFF30080AFF30080AFF30080F0
:101E900080B500AFFFF724FD00F05AFEFFF788FF82
:101EA00080BD00BFAFF30080AFF30080AFF30080D0
:101EB00080B582B000AF7860FFF76AFD7B68DB68B1
:101EC000002B0CBF00230123DBB218460837BD46A8
:101ED00080BD00BFAFF30080AFF30080AFF30080A0
:101EE00080B582B000AF7860FFF752FD7B689B68D9
:101EF0005A1C7B689A600837BD4680BDAFF30080EE
:101F000080B500AF0648FFF75BFF054B00229A60E3
:101F1000034B034A1A61024B014A5A6180BD00BF5C
:101F200000080020AFF30080AFF30080AFF3008023
:101F300080B584B000AF7860FFF72AFD7B68002B86
:101F400002D11948FFF7CCFB7B6893F82030002BB7
:101F500004D07B6893F820300F2B02D11248FFF792
:101F6000BFFB7B68002283F82020104BFB60FB68DE
:101F70001B68FB60FB689A687B689B689A42F6D294
:101F80007B68FA681A60FB685A687B685A607B68ED
:101F90005B687A681A60FB687A685A607B681846E2
:101FA0001037BD4680BD00BF7098000800080020B3
:101FB00090B585B000AF0346FB71FFF701FD194BEB
:101FC0009B69FB60FB68FA7983F820201548FFF7CE
:101FD00007FF0246134B9A61124B9B69012283F85B
:101FE0002020F868FFF714FD0E4B9B691846F9682E
:101FF00000F076FDEFF309831C462346BB60BB6807
:10200000A3F12402FB68DB699A4202D20648FFF77B
:1020100067FB044B9B691846F968FEF739F91437DA
:10202000BD4690BD0008002010970008AFF3008067
:1020300080B584B000AF78607B68FB60FFF718FF65
:10204000FB6893F82030072B23D801A252F823F025
:1020500071200008932000089320000877200008D2
:102060008B20000881200008932000088B200008A6
:10207000FFF70EFF17E0FB685B6A00221A6009E0B9
:10208000FB685B6A1846FFF72BFFF868FFF7C0FE96
:1020900000E000BFFB684FF0FF325A62F868FFF7BC
:1020A00047FFFFF7F5FE1037BD4680BDAFF3008058
:1020B00080B588B000AF03463960FB71FFF780FC44
:1020C0003B68B3F1FF3F1BD0134B9B6907F10C0238
:1020D00010463968114AFFF733FDFB791846FFF7C0
:1020E00067FF07F10C031846FFF7E2FE0346002BDB
:1020F00005D007F10C031846FFF7B2FD04E003E03A
:10210000FB791846FFF754FF034B9B695B6A18463F
:102110002037BD4680BD00BF0008002031200008E8
:1021200090B585B000AF78603960FFF749FC7B68F7
:102130003A685A627B689A68194B9B699B689A4215
:1021400003D87868FFF7F4FE26E0154B9B69184624
:10215000FFF7EEFEF860124B7A689A617B68012205
:1021600083F82020F868FFF753FC7868F96800F0DE
:10217000B7FCEFF309831C462346BB60BB68A3F1A1
:102180002402FB68DB699A4202D20648FFF7A8FAEC
:102190007868F968FEF77CF81437BD4690BD00BF3B
:1021A0000008002010970008AFF30080AFF3008014
:1021B00080B500AFFFF704FCFFF742FE0346002B9B
:1021C00001D000F025F880BDAFF30080AFF30080B0
:1021D00080B483B000AF0A4B1B689B687B60084BE0
:1021E0009B699B683B607A683B689A4294BF002376
:1021F0000123DBB218460C37BD465DF8047B7047FF
:1022000000080020AFF30080AFF30080AFF3008040
:1022100090B585B000AF264B9B69BB602448FFF7A3
:10222000DFFD0246224B9A61214B9B69012283F814
:102230002020BB68002283F820201D4BFB60FB6838
:102240001B68FB60FB689A68BB689B689A42F6D87B
:10225000BB68FA681A60FB685A68BB685A60BB685A
:102260005B68BA681A60FB68BA685A60B868FFF7BA
:10227000CFFB0F4B9B691846B96800F031FCEFF3B8
:1022800009831C4623467B607B68A3F12402BB685C
:10229000DB699A4202D20748FFF722FA044B9B6996
:1022A0001846B968FDF7F4FF1437BD4690BD00BF6E
:1022B0000008002010970008AFF30080AFF3008003
:1022C00080B500AFFFF7A4FF80BD00BFAFF3008073
:1022D00080B483B000AF20237B607B6883F31188D8
:1022E0000C37BD465DF8047B704700BFAFF300803C
:1022F00080B483B000AF00237B607B6883F31188D8
:102300000C37BD465DF8047B704700BFAFF300801B
:1023100080B483B000AF78607B687A681A600C374D
:10232000BD465DF8047B7047AFF30080AFF30080DB
:1023300080B483B000AF78607B681A687B689A428B
:102340000CBF00230123DBB218460C37BD465DF8F5
:10235000047B7047AFF30080AFF30080AFF30080E1
:1023600080B483B000AF78607B687A681A607B685D
:102370007A685A600C37BD465DF8047B704700BF31
:1023800080B483B000AF78607B681A687B689A423B
:102390000CBF00230123DBB218460C37BD465DF8A5
:1023A000047B7047AFF30080AFF30080AFF3008091
:1023B00080B485B000AF78607B681B68FB60FB6809
:1023C0001A687B681A60FB6818461437BD465DF8CA
:1023D000047B7047AFF30080AFF30080AFF3008061
:1023E00080B483B000AF786039607B683A681A6067
:1023F0003B685A687B685A607B685B687A681A60D9
:102400003B687A685A600C37BD465DF8047B7047BC
:1024100080B485B000AF78607B681B68FB60FB68A8
:102420001A687B681A607B681B687A685A60FB6868
:1024300018461437BD465DF8047B7047AFF3008043
:1024400080B500AFFFF744FF00F06AFBFFF700FA2A
:1024500080BD00BFAFF30080AFF30080AFF300801A
:1024600080B500AFFFF70CFA00F062FB094B1A6869
:10247000084B9A420AD0074B9B699A68054B1B6828
:102480009B689A4202D20448FFF72AF9FFF730FF0F
:1024900080BD00BF0008002090980008AFF30080C6
:1024A00080B400AF034B9B691846BD465DF8047BC2
:1024B000704700BF00080020AFF30080AFF300803A
:1024C00080B582B000AF78607B68002B02D10548F0
:1024D000FFF706F908207968FFF7EAFD0837BD46DF
:1024E00080BD00BFA0980008AFF30080AFF300806C
:1024F00080B584B000AF786039607868FFF740FF3E
:10250000034683F00103DBB2002B02D00B48FFF738
:10251000E7F87868FFF77CFFF860FB6893F82030F5
:10252000042B02D00548FFF7DBF8FB683A685A62D3
:10253000F868FFF7FDFC1037BD4680BDE098000845
:1025400080B582B000AF786039607B683A689A6085
:102550007B68022283F820207B68002283F82120F8
:102560007B683A681A647B680022DA637B68002221
:102570009A637B68012283F822207B6800229A619B
:102580007B68154A1A61144B5A697B685A617B68EB
:102590005B697A681A61104B7A685A617B682833E4
:1025A0001846FFF7B5FE7B682C331846FFF7D8FEB8
:1025B0007B6803F168027B68DA617B684833184600
:1025C00000F006FA7B684833184600F021FA7B6871
:1025D00018460837BD4680BD00080020AFF30080D4
:1025E00080B485B000AFF860B9601346FB7104E0B9
:1025F000FB685A1CFA60FA791A70FA68BB689A424A
:10260000F6D31437BD465DF8047B7047AFF3008006
:1026100080B586B000AFF860B9607A603B60FB6857
:102620007B61FFF7B5F9FB68002B08D0BB68EF2B87
:1026300005D97B687F2B02D83B68002B02D10F485D
:10264000FFF74EF8BB68243BFA681A447B69DA60EE
:102650007B69DB683A681A607B69DB683A6A5A60B2
:102660007B69DB68064A1A6278697968FFF768FF58
:10267000034618461837BD4680BD00BF8098000845
:10268000A1020008AFF30080AFF30080AFF3008039
:1026900080B588B002AFF860B9607A603B60FB68D3
:1026A0006833F8681946FF22FFF79AFFFB6803F1C9
:1026B0006802F968BB680B44104619465522FFF7BB
:1026C0008FFFFFF7BDFE3B6A0093F868B9687A6830
:1026D0003B68FFF79DFF786178690021FFF720FDD7
:1026E000FFF7BEFE7B6918461837BD4680BD00BFA8
:1026F00080B582B000AF7860FFF7A2FE7868FFF780
:10270000DFFEFFF7ADFE0837BD4680BDAFF30080AA
:1027100080B582B000AF7860FFF792FE786800F075
:1027200007F80837BD4680BDAFF30080AFF30080E7
:1027300080B584B000AF7860184B9B69FB60FB6884
:102740007A685A6208E0FB6828331846FFF730FEC3
:1027500003461846FFF7ECFBFB6828331846FFF7E3
:10276000E7FD0346002BEED1FB6893F8213003F020
:102770000303002B09D1FB685B69FA6812691A61CF
:10278000FB681B69FA6852695A610F20FFF710FC59
:102790000348FEF7A5FF1037BD4680BD00080020A6
:1027A000B0980008AFF30080AFF30080AFF3008073
:1027B00080B584B000AF7860FFF772FEF8607B6888
:1027C0001B68002B02D00A48FEF78AFF7B68FA6874
:1027D0001A60FB687A685A620320FFF7E9FBFFF78B
:1027E0005FFE03465B6A18461037BD4680BD00BFDA
:1027F000C0980008AFF30080AFF30080AFF3008013
:1028000080B584B000AF786039607B681B68002BAE
:1028100013D07B681B68FB60FB6893F82030032BA8
:1028200002D00748FEF75CFF7B6800221A60FB6855
:102830003A685A62F868FFF77BFB1037BD4680BDE7
:10284000D0980008AFF30080AFF30080AFF30080B2
:1028500080B582B000AF786039603B68002B02D150
:102860004FF0FF330AE0074B9B6918467968FFF782
:10287000B7FD04203968FFF71BFC034618460837EC
:10288000BD4680BD00080020AFF30080AFF300809C
:1028900080B582B000AF786039607868FFF770FD6E
:1028A0000346002B03D078683968FFF721FE08370C
:1028B000BD4680BDAFF30080AFF30080AFF3008072
:1028C00080B582B000AF7860396003E0786839681D
:1028D000FFF70EFE7868FFF753FD0346002BF5D196
:1028E0000837BD4680BD00BFAFF30080AFF3008066
:1028F00080B400AF034B5B681846BD465DF8047BAF
:10290000704700BF001000E0AFF30080AFF300801D
:1029100080B485B000AFF860B9607A60FB68DB68AE
:102920005A1CFB68DA60FB689B68BA68D21A7B683D
:10293000D21AFB689A60FB68D3E90401FB689B68C4
:102940001A464FF00003121843EB0103F968C1E97E
:102950000423FB689A68FB685B689A4204D9FB68A9
:102960009A68FB685A6009E0FB689A68FB681B6814
:102970009A4203D2FB689A68FB681A601437BD4616
:102980005DF8047B704700BFAFF30080AFF30080B9
:1029900080B586B000AF0B4B0022C3F8A8243B469D
:1029A000184600F015F83B46184600F031F83B4653
:1029B000184600F03DF8BA68024BC3F8A82418374F
:1029C000BD4680BD00080020AFF30080AFF300805B
:1029D00080B483B000AF78607B684FF0FF321A603C
:1029E0007B6800225A607B6800229A607B68002224
:1029F000DA6079684FF000024FF00003C1E9042368
:102A00000C37BD465DF8047B704700BFAFF3008014
:102A100080B582B000AF7860FFF76AFF02467B683E
:102A20009A600837BD4680BDAFF30080AFF30080E9
:102A300080B582B000AF7860FFF75AFF0246054BC1
:102A4000D3F8A834786811461A46FFF761FF0837B3
:102A5000BD4680BD00080020AFF30080AFF30080CA
:102A600080B582B000AF78603960FFF741FF024661
:102A70003B689A603B689B68786819460022FFF7BC
:102A800047FF0837BD4680BDAFF30080AFF300803D
:102A900080B500AF074B0022C3F8B024054B0022DD
:102AA000C3F8B4240448FFF793FF0448FFF790FFEE
:102AB00080BD00BF00080020B80C0020D00C002012
:102AC00080B400AF054BD3F8B0345A1C034BC3F8A5
:102AD000B024BD465DF8047B704700BF00080020AD
:102AE00080B582B000AF78603960094BD3F8B43458
:102AF0005A1C074BC3F8B4243B6803F148027B68B7
:102B0000483310461946FFF7ABFF0837BD4680BD76
:102B100000080020AFF30080AFF30080AFF3008027
:102B200080B500AF0148FFF773FF80BDB80C0020EF
:102B300080B500AF0148FFF77BFF80BDB80C0020D7
:102B400080B500AF0148FFF763FF80BDD00C0020C7
:102B500080B500AF0148FFF76BFF80BDD00C0020AF
:102B600080B483B000AF20237B607B6883F311883F
:102B70000C37BD465DF8047B704700BFAFF30080A3
:102B800080B483B000AF00237B607B6883F311883F
:102B90000C37BD465DF8047B704700BFAFF3008083
:102BA00080B483B000AF78607B687A681A607B6815
:102BB0007A685A600C37BD465DF8047B704700BFE9
:102BC00080B483B000AF78607B681A687B689A42F3
:102BD0000CBF00230123DBB218460C37BD465DF85D
:102BE000047B7047AFF30080AFF30080AFF3008049
:102BF00080B485B000AF786039603B68FB60FB68EB
:102C00001B68FB60FA683B689A4205D0FB689A68CB
:102C10007B689B689A42F2D27B68FA681A60FB680C
:102C20005A687B685A607B685B687A681A60FB68E0
:102C30007A685A601437BD465DF8047B704700BF60
:102C400080B485B000AF78607B681B68FB60FB6870
:102C50001A687B681A607B681B687A685A60FB6830
:102C600018461437BD465DF8047B7047AFF300800B
:102C700080B483B000AF78607B685B687A68126864
:102C80001A607B681B687A6852685A607B681846CD
:102C90000C37BD465DF8047B704700BFAFF3008082
:102CA00080B500AFFFF75CFFFFF73AFFFEF7D0FDFE
:102CB00080BD00BFAFF30080AFF30080AFF30080B2
:102CC00080B500AFFEF7DCFDFFF732FF094B1A6855
:102CD000084B9A420AD0074B9B699A68054B1B68C0
:102CE0009B689A4202D20448FEF7FAFCFFF748FFBD
:102CF00080BD00BF0008002030990008AFF30080BD
:102D000080B582B000AF7860FEF75AFE7B68184647
:102D1000FFF756FF034618460837BD4680BD00BF83
:102D200080B582B000AF78607B68002B02D1064886
:102D3000FEF7D6FC7B681846FFF732FF7B6800225F
:102D40009A600837BD4680BD20990008AFF3008027
:102D500080B582B000AF7860FFF7A2FF786800F01E
:102D600007F8FFF7ADFF0837BD4680BDAFF3008021
:102D700080B584B000AF78603B4B9B69BB60FEF7C9
:102D80001FFE7B68002B02D13848FEF7A9FC7B6848
:102D90009B68002B5BD07B689B68FB6034E0BB6862
:102DA0009A68FB689A60FB6893F82030062B04D081
:102DB000072B11D0002B1AD025E0F868FFF758FF39
:102DC0000246FB685B6A10461946FFF711FFFB6875
:102DD0005B6A9B68FB6017E0F868FFF749FF0246F3
:102DE000FB685B6A10461946FFF702FF0BE0FB68C1
:102DF000012283F82020F868FFF73AFF03461846BF
:102E0000FFF796F800BF05E0FB689A68BB689B680F
:102E10009A42C4D37B68B8681946FFF7E9FEBB68DD
:102E20007A685A620620FFF7C3F87B689A68BB6825
:102E30009A4202D00D48FEF753FCBB68DA6B7B6800
:102E40009A4203D00948FEF74BFC0AE009E07B6890
:102E5000BA689A60BB68DA6B7B68DA60BB687A68CC
:102E6000DA631037BD4680BD000800204099000895
:102E700080B586B000AF7860344B9B69FB607B689F
:102E8000002B02D13248FEF72BFCFFF709FFFB684D
:102E9000DB6B002B02D12E48FEF722FCFB68DB6BBC
:102EA0009A68FB689A4202D02948FEF719FCFB6831
:102EB000DA6B7B689A4202D02548FEF711FC7B68EA
:102EC000DA68FB68DA637868FFF71AFF0346002BBD
:102ED00034D0FB681B6C3B61FB68DB6B7B6112E0F1
:102EE0007869FFF70DFF0346002B09D07B691B684B
:102EF0009A683B699A4203D97B691B689B683B616E
:102F00007B69DB687B617B69002BE9D1FB683A69EF
:102F10009A607B681846FFF793FEB8607B68BA68D2
:102F20009A60BB68DA6B7B68DA60BB687A68DA63E0
:102F3000B868FEF7FDFFFFF73BF902E07B6800226F
:102F40009A60FFF7BDFE1837BD4680BD000800201F
:102F500050990008AFF30080AFF30080AFF300801A
:102F600080B584B000AF78603960FEF711FD7B68F2
:102F7000002B02D11448FEF7B3FB7B681B68FB6093
:102F80001AE0FB68DA683B681A43FB68DA603B6862
:102F9000002B06D0FB68DA68FB681B691340002B26
:102FA00007D0FB685A68FB689B681046194600F01A
:102FB0000FF8FB681B68FB60FA687B689A42E0D1F7
:102FC0001037BD4680BD00BF60990008AFF3008098
:102FD00080B582B000AF78603960FEF7D9FC7B68BD
:102FE000002B02D11548FEF77BFB7B689A6B3B6890
:102FF0001A437B689A637B6893F820300A2B06D1CA
:103000007B689A6B7B685B6A1340002B0DD17B68F1
:1030100093F820300B2B0ED17B689A6B7B685B6A30
:103020001A407B685B6A9A4205D17B6800225A622B
:103030007868FEF77DFF0837BD4680BD809900089F
:1030400080B483B000AF20237B607B6883F311885A
:103050000C37BD465DF8047B704700BFAFF30080BE
:1030600080B483B000AF00237B607B6883F311885A
:103070000C37BD465DF8047B704700BFAFF300809E
:1030800080B483B000AF78607B687A681A607B6830
:103090007A685A600C37BD465DF8047B704700BF04
:1030A00080B500AFFFF7CCFFFFF73AFDFEF7D0FB8E
:1030B00080BD00BFAFF30080AFF30080AFF30080AE
:1030C00080B500AFFEF7DCFBFFF732FD094B1A6855
:1030D000084B9A420AD0074B9B699A68054B1B68BC
:1030E0009B689A4202D20448FEF7FAFAFFF7B8FF4B
:1030F00080BD00BF0008002090990008AFF3008059
:1031000080B582B000AF78607868FFF7B9FF083704
:10311000BD4680BDAFF30080AFF30080AFF3008009
:1031200080B582B000AF7860FEF732FC7B689B68A8
:10313000002B14BF00230123DBB218460837BD461D
:1031400080BD00BFAFF30080AFF30080AFF300801D
:1031500080B582B000AF7860FEF71AFC7B685A69D0
:103160007B689B699A4205D17B689B68002B01D0E4
:10317000012300E0002303F00103DBB21846083707
:10318000BD4680BDAFF30080AFF30080AFF3008099
:1031900080B582B000AF7860FEF7FAFB7B685A69B1
:1031A0007B689B699A4205D17B689B68002B01D0A4
:1031B000012300E0002303F00103DBB218460837C7
:1031C000BD4680BDAFF30080AFF30080AFF3008059
:1031D00080B582B000AF7860FEF7DAFB7B689B6851
:1031E000002B14BF00230123DBB218460837BD466D
:1031F00080BD00BFAFF30080AFF30080AFF300806D
:1032000080B584B000AFF860B9607A603B60FB685D
:103210001846FFF775FFFB6800229A60FB68BA68E2
:10322000DA60FB68BA689A61FB68BA685A61BA6882
:103230007B681A44FB681A61FB683A68DA61FB68CC
:10324000BA691A621037BD4680BD00BFAFF3008077
:1032500080B582B000AF78600B46FB70FEF798FB3C
:103260007868FFF775FF0346002B02D06FF0030369
:103270001BE07B689B685A1C7B689A607B685B6973
:10328000591C7A685161FA781A707B685A697B68B0
:103290001B699A4203D37B68DA687B685A617B6852
:1032A00018460021FFF7F4FA002318460837BD46F8
:1032B00080BD00BFAFF30080AFF30080AFF30080AC
:1032C00080B584B000AF78603960FFF7E9FE7B68B5
:1032D000DB69002B04D07B68DB69786898470DE0D8
:1032E0000CE07B6818463968FFF7B2FAF860FB68B3
:1032F000002B03DAFFF7E4FEFB681EE07868FFF7B7
:103300000FFF0346002BECD17B689B685A1E7B683D
:103310009A607B689B69591C7A6891611B78FB7283
:103320007B689A697B681B699A4203D37B68DA6879
:103330007B689A61FFF7C4FEFB7A18461037BD46DA
:1033400080BD00BFAFF30080AFF30080AFF300801B
:1033500080B586B000AFF860B9607A603B60FB680A
:10336000DB693B6100237B617B68002B02D126482F
:10337000FEF7B6F9FFF794FE3B69002B03D03B69DB
:10338000F86898470CE00BE0FB6818463968FFF7CF
:103390005FFA0346002B03D0FFF792FE7B692EE015
:1033A000F868FFF7BDFE0346002BEDD1FB689B6874
:1033B0005A1EFB689A60BB685A1CBA60FA68926928
:1033C000501CF968886112781A70FB689A69FB686A
:1033D0001B699A4203D3FB68DA68FB689A61FFF7BE
:1033E0006FFE7B6901337B617B68013B7B607B689F
:1033F000002B01D17B6902E0FFF752FEBCE71846C3
:103400001837BD4680BD00BFA0990008AFF300800B
:1034100080B584B000AFF860B9607A603B60FB684B
:103420001846FFF76DFEFB687A689A60FB68BA6819
:10343000DA60FB68BA689A61FB68BA685A61BA6870
:103440007B681A44FB681A61FB683A68DA61FB68BA
:10345000BA691A621037BD4680BD00BFAFF3008065
:1034600080B586B000AFF8600B467A60FB72FFF75C
:1034700017FE0CE0FB6818467968FFF7E9F97861F8
:103480007B69002B03DAFFF71BFE7B6926E0F868F7
:10349000FFF79EFE0346002BECD1FB689B685A1E8B
:1034A000FB689A60FB685B69591CFA685161FA7A9B
:1034B0001A70FB685A69FB681B699A4203D3FB6860
:1034C000DA68FB685A61FB68DB69002B03D0FB6894
:1034D000DB69F8689847FFF7F3FD002318461837B3
:1034E000BD4680BDAFF30080AFF30080AFF3008036
:1034F00080B584B000AF7860FEF74AFA7868FFF7CD
:1035000047FE0346002B02D06FF002031BE07B68EE
:103510009B685A1C7B689A607B689B69591C7A6817
:1035200091611B78FB737B689A697B681B699A427F
:1035300003D37B68DA687B689A617B681846002150
:10354000FFF7A6F9FB7B18461037BD4680BD00BFCC
:1035500080B586B000AFF860B9607A603B60FB6808
:10356000DB693B6100237B617B68002B02D126482D
:10357000FEF7B6F8FFF794FD0BE0FB6818463968D4
:10358000FFF766F90346002B03D0FFF799FD7B692F
:1035900035E0F868FFF71CFE0346002BEDD1FB6811
:1035A0009B685A1EFB689A60FB685B69591CFA6845
:1035B0005161BA68511CB96012781A70FB685A6977
:1035C000FB681B699A4203D3FB68DA68FB685A619F
:1035D0003B69002B02D03B69F8689847FFF770FD04
:1035E0007B6901337B617B68013B7B607B68002BDF
:1035F00001D17B6903E0FFF753FD00BFC9E718461F
:103600001837BD4680BD00BFB0990008AFF30080F9
:1036100080B483B000AF20237B607B6883F3118884
:103620000C37BD465DF8047B704700BFAFF30080E8
:1036300080B483B000AF00237B607B6883F3118884
:103640000C37BD465DF8047B704700BFAFF30080C8
:1036500080B500AFFFF7DCFFFFF762FAFEF7F8F87E
:1036600080BD00BFAFF30080AFF30080AFF30080F8
:1036700080B500AFFEF704F9FFF75AFA094B1A6854
:10368000084B9A420AD0074B9B699A68054B1B6806
:103690009B689A4202D20448FEF722F8FFF7C8FF5F
:1036A00080BD00BF00080020D0990008AFF3008063
:1036B00080B400AF084B073323F007031A46074BCB
:1036C0001A60074B23F007031A46064B1A60BD46E3
:1036D0005DF8047B704700BF307C0020E80D0020BF
:1036E00000000220EC0D0020AFF30080AFF300805B
:1036F00080B584B000AF7860FFF7AAFF786800F06B
:103700000FF8F860FFF7B4FFFB6818461037BD46A6
:1037100080BD00BFAFF30080AFF30080AFF3008047
:1037200080B584B000AF7860FEF732F97B6807336C
:1037300023F007037B600D4B1B681A460C4B1B687C
:10374000D31A1A467B689A4201D2002309E0084B3B
:103750001B68FB60064B1A687B681A44044B1A60AE
:10376000FB6818461037BD4680BD00BFEC0D002039
:10377000E80D0020AFF30080AFF30080AFF30080CE
:1037800080B500AF064B074A1A60054B00229A60CD
:10379000034B0022DA600448FFF7C2FA80BD00BF85
:1037A000F00D0020F1360008000E0020AFF300807D
:1037B00080B586B000AF786039607B68002B01D19E
:1037C000364B7B603B68073323F007033B607B6825
:1037D00008337B617B6810331846FFF7B9FA36E08F
:1037E0007B691B683B613B695A683B689A422CD3F2
:1037F0003B695A683B6808339A4204D23B691A68AD
:103800007B691A6016E03B6808333A691344FB6031
:103810003B691A68FB681A603B695A683B68D31AAF
:10382000A3F10802FB685A607B69FA681A603B6979
:103830003A685A603B697A681A607B6810331846A8
:10384000FFF716FB3B69083324E03B697B617B692A
:103850001B68002BC4D17B6810331846FFF708FBA8
:103860007B681B68002B14D07B681B683A680832A1
:103870001046984738613B69002B0AD03B697A684B
:103880001A603B693A685A603B6908333B613B699F
:1038900000E0002318461837BD4680BDF00D00201B
:1038A00080B483B000AF20237B607B6883F31188F2
:1038B0000C37BD465DF8047B704700BFAFF3008056
:1038C00080B483B000AF00237B607B6883F31188F2
:1038D0000C37BD465DF8047B704700BFAFF3008036
:1038E00080B500AFFFF7DCFF80BD00BFAFF3008005
:1038F00080B500AFFFF7E4FF80BD00BFAFF30080ED
:1039000090B583B000AFEFF309831C4623467B607C
:103910007B6820337B607B683B603B6883F309886E
:10392000FFF7E6FF0C37BD4690BD00BFAFF3008048
:1039300090B583B000AFFFF7D3FF144B5B6803F47F
:103940000063002B1DD0EFF309831C4623467B60E8
:103950007B68203B7B607B684FF08072DA617B681C
:103960003B603B6883F30988FEF732FC0346002B7B
:1039700003D07B68064A9A6105E07B68054A9A6134
:1039800001E0FFF7B5FF0C37BD4690BD00ED00E04C
:10399000B9020008CC020008AFF30080AFF300804A
:1039A00080B400AFBD465DF8047B7047AFF3008084
:1039B00080B500AFFFF7F4FF02F09AFD094803F06D
:1039C000BFFF00F0E5F800F05BF901F099F800F0B6
:1039D0000FFD01F045F901F063FC05F091F901F0EC
:1039E000AFF980BD009E0008AFF30080AFF3008008
:1039F00080B588B000AFF860B9607A60BA687B685B
:103A00009A4204D3BA687B68D31A1F2B02D91E4886
:103A1000FDF766FE7B685B09FB617B6803F01F03B3
:103A2000BB61BB685B097B61BB6803F01F030133AB
:103A3000012202FA03F3013B3B61FA697B699A4276
:103A400014D2FB699B00FA6813441A68BB69DA4018
:103A50007B699B00F9680B4419683B691940BB6995
:103A6000C3F1200301FA03F3134309E0FB699B0050
:103A7000FA6813441A683B691A40BB6922FA03F3D7
:103A800018462037BD4680BDE0990008AFF300809E
:103A900080B586B000AF78607B68002B02D11C48EF
:103AA000FDF71EFE78687F217E22FFF7A1FF034607
:103AB000002B04D0012B1ED000BF002323E0786828
:103AC00049213E22FFF794FF7861786831212F2247
:103AD000FFF78EFF3861786853215022FFF788FF87
:103AE000F8607B695A1C3B6902339A40FB68093BCA
:103AF00002FA03F307E0786845213022FFF778FFE8
:103B0000034601339B0218461837BD4680BD00BFEF
:103B1000009A0008AFF30080AFF30080AFF300809D
:103B200080B582B000AF78607B68002B02D10C4872
:103B3000FDF7D6FD7B68D7331B781A067B68D63332
:103B40001B781B041A447B68D5331B781B021A446C
:103B50007B68D4331B78134418460837BD4680BDB4
:103B6000209A0008AFF30080AFF30080AFF300802D
:103B700080B582B000AF78607868FFF7D1F8083779
:103B8000BD4680BDAFF30080AFF30080AFF300808F
:103B900080B500AF02F034FE80BD00BFAFF30080FF
:103BA00080B582B000AF78607B6801221A707B68B4
:103BB00000225A607B6800229A607B680022DA60EB
:103BC0007B6800221A617B6800225A617B68183387
:103BD0001846FFF7CDFF0837BD4680BDAFF3008024
:103BE00080B483B000AF78607B687A681A607B68C5
:103BF0007A685A600C37BD465DF8047B704700BF99
:103C000080B582B000AF78607868FFF7E9FF0837C9
:103C1000BD4680BDAFF30080AFF30080AFF30080FE
:103C200080B483B000AF78607B687A681A600C3724
:103C3000BD465DF8047B7047AFF30080AFF30080B2
:103C400080B582B000AF78607868FFF7D9FF083799
:103C5000BD4680BDAFF30080AFF30080AFF30080BE
:103C600080B582B000AF78607868FFF7D9FF083779
:103C7000BD4680BDAFF30080AFF30080AFF300809E
:103C800080B500AF02F06CFF80BD00BFAFF30080D5
:103C900080B582B000AF78607B6801221A707B68C3
:103CA00000225A607B6808331846FFF7C9FF7B681B
:103CB00010331846FFF7C4FF7B6818331846FFF728
:103CC000CFFF0837BD4680BDAFF30080AFF3008063
:103CD00080B483B000AF20237B607B6883F31188BE
:103CE0000C37BD465DF8047B704700BFAFF3008022
:103CF00080B483B000AF00237B607B6883F31188BE
:103D00000C37BD465DF8047B704700BFAFF3008001
:103D100080B500AFFFF7DCFFFEF702FFFDF798FD6F
:103D200080BD00BFAFF30080AFF30080AFF3008031
:103D300080B500AFFDF7A4FDFEF7FAFE094B1A6847
:103D4000084B9A420AD0074B9B699A68054B1B683F
:103D50009B689A4202D20448FDF7C2FCFFF7C8FFF5
:103D600080BD00BF00080020C09A0008AFF30080AB
:103D700080B500AFFFF7CCFF80BD00BFAFF3008080
:103D800080B500AFFFF7D4FF80BD00BFAFF3008068
:103D900080B582B000AF78607868FEF7A9FC08377C
:103DA000BD4680BDAFF30080AFF30080AFF300806D
:103DB00080B584B000AF786007F10C037868082103
:103DC0004FF4D57203F034FB034683F00103DBB2FA
:103DD000002B1BD07B6801221A63FB681B0A03F0CF
:103DE0000F03012B01D001232CE007F10C037868AD
:103DF0003721002203F01CFB0346002B04D1FA6894
:103E0000124B1340002B1CD001231BE007F10C03C5
:103E100078683721002203F00BFB0346002B04D106
:103E2000FA680A4B1340002B03D07B6802221A6306
:103E300007E07B6800221A6378680021002203F003
:103E40008FFA002318461037BD4680BD08E0FFFDFD
:103E500080B586B000AF7860184B3B6100237B6172
:103E600007F10C03786801213A6903F0A1FA0346CF
:103E7000002B01D001231CE0FB68002B0CDAFB684F
:103E800003F08043002B06D07B681B6B43F01002CD
:103E90007B681A630CE00BE07B6901337B617B6913
:103EA000632B01D9012304E06420FFF771FFD7E7FA
:103EB000002318461837BD4680BD00BF0080FFC0F4
:103EC00080B586B000AF78607B681B6B03F00F0392
:103ED000012B02D1224B3B6101E0224B3B610023CD
:103EE0007B6107F10C0378683721002203F0A0FA08
:103EF0000346002B04D1FA681B4B1340002B01D062
:103F0000012328E007F10C03786829213A6903F0BE
:103F10004FFA0346002B01D001231CE0FB68002B65
:103F20000CDAFB6803F08043002B06D07B681B6B28
:103F300043F010027B681A630CE00BE07B690133ED
:103F40007B617B69632B01D9012304E06420FFF7C7
:103F50001FFFC6E7002318461837BD4680BD00BFC7
:103F6000000010C00000108008E0FFFDAFF30080EB
:103F700080B584B000AFB9607A603B600346FB73E4
:103F8000BB68BF2B02D90B48FDF7AAFB3B68072B88
:103F900002D90848FDF7A4FBFB7B1A06BB681B048B
:103FA0001A437B681B021A433B68134318461037B9
:103FB000BD4680BD609A0008AFF30080AFF300807B
:103FC00080B584B000AF0B463A600246FA71BB710F
:103FD0006FF07F43FB603B680F2B02D90D48FDF764
:103FE0007FFBBB799B000F2202FA03F3DB43FA68E5
:103FF0001340FB60BB799B003A6802FA03F3FA684E
:104000001343FB60FB79DA07FB681343184610374C
:10401000BD4680BD809A0008AFF30080AFF30080FA
:1040200080B485B000AF03463960FB71FA7913465E
:10403000DB079B1A5B000C33FB603A68FB68134498
:104040001B781B029AB2FB68013339680B441B785A
:1040500013439BB29BB218461437BD465DF8047BF0
:10406000704700BFAFF30080AFF30080AFF3008074
:1040700080B485B000AF03463960FB713B680E33F6
:104080001B781A043B680F331B781B021A433B68EA
:1040900010331B781343FB60FB799B00FA6822FA0C
:1040A00003F303F00F03BB60BB680F2B01D00023A9
:1040B00000E0012318461437BD465DF8047B7047C5
:1040C000F0B589B002AF7860396069460E4640218C
:1040D0007961796901393961796908464FF00001E0
:1040E000CD0045EA5075C400796908464FF00001DB
:1040F000CB0043EA5073C2007B690733DB08DB0067
:10410000ADEB030D02AB0033FB603B6800221A707D
:104110007B68183318467F217E22FFF769FC03462F
:10412000002B04D13B6800221A7000233EE0FB689C
:1041300000220092786819467A69062303F008FA8B
:104140000346002B01D0012330E0FB680020194614
:10415000FFF766FF034603F00203002B25D0012082
:1041600000210122FFF72CFFB860FB68BA680092BB
:10417000786819467A69062303F0EAF90346002BAA
:1041800001D0012312E0FB6800201946FFF770FF01
:10419000034683F00103DBB2002B03D03B6801220E
:1041A0001A7002E03B6800221A700023B5461846D8
:1041B0001C37BD46F0BD00BFAFF30080AFF30080F9
:1041C00080B586B000AF786039607B68DB6A1B68B9
:1041D0007B613B6800221A707B69002B01D10023B0
:1041E0001CE00320B92101220023FFF7C1FE386142
:1041F00007F10C03786806213A6903F019F90346C0
:1042000083F00103DBB2002B07D0FA68054B1340A3
:10421000002B02D13B6801221A7000231846183780
:10422000BD4680BD08E0FFFDAFF30080AFF3008026
:1042300080B582B000AF786039607B681B6B03F09B
:104240000F03022B05D178683968FFF7B9FF0346E1
:1042500004E078683968FFF733FF034618460837EB
:10426000BD4680BDAFF30080AFF30080AFF30080A8
:1042700080B584B000AF78607B68DB6A1B79002B67
:1042800001D100232EE07B68DB6A1B79012B26D14C
:104290007868012103F034F87B689A6B07F10C030E
:1042A0007868372103F0C4F80346002B04D1FA687C
:1042B0000E4B1340002B01D0012313E007F10C0338
:1042C00078680621022203F0B3F80346002B04D1DC
:1042D000FA68064B1340002B03D0012302E00123B0
:1042E00000E0002318461037BD4680BD08E0FFFD02
:1042F00080B584B000AF78600320B721002200238E
:10430000FFF736FEF8607B68DB6A1B79012B05D06E
:10431000022B0BD0002B11D100232CE00320B7215E
:1043200001220023FFF724FEF8600BE00320B721F1
:1043300002220023FFF71CFEF86003E01048FDF79F
:10434000CFF900BF7B68DB6A1B797868194602F0F9
:10435000D7FF07F1080378680621FA6803F068F8C8
:104360000346002B04D1BA68064B1340002B01D042
:10437000012300E0002318461037BD4680BD00BF72
:10438000A09A000808E0FFFDAFF30080AFF30080C3
:1043900080B584B000AF78607B689A6B07F10C033E
:1043A00078680D2103F044F80346002B04D1FA6825
:1043B0000D4B1340002B01D0012311E0FB685B0A79
:1043C00003F00F03042B04D0042B08D3072B06D8CB
:1043D00001E0002304E00A20FFF7DAFCDCE7012318
:1043E00018461037BD4680BD08E0FFFDAFF30080E2
:1043F00080B500AF02F01CFF80BD00BFAFF30080AE
:1044000080B483B000AF78607B68094A1A607B682B
:1044100001221A717B6800225A637B680022DA62EB
:104420007B6800229A620C37BD465DF8047B7047BA
:10443000409A0008AFF30080AFF30080AFF3008034
:1044400080B588B002AF78600023FB737B68002BD7
:1044500002D17348FDF744F97B681B79022B06D023
:104460007B681B79052B02D06D48FDF739F97B6815
:1044700003221A71786802F0F3FE786800210022A6
:1044800002F06EFF7868FFF793FC0346002B00D024
:10449000BBE07B681B6B03F00F03022B06D178682F
:1044A000FFF7D6FC0346002B07D0AEE07868FFF795
:1044B00007FD0346002B00D0A7E07B68083378682F
:1044C0000221002202F0F4FF0346002B00D09CE002
:1044D0007B68383378680321002202F0A9FF034685
:1044E000002B00D091E07B689A6B7B68183378686A
:1044F000092102F0DDFF0346002B00D085E07B6838
:104500009A6B07F110037868072102F091FF0346C8
:10451000002B00D079E007F10F0378681946FFF708
:1045200087FE0346002B00D06FE0FB7B78681946BE
:1045300002F0B6FE7B681B6B03F00F03022B2ED13B
:104540007B68183318467F217E22FFF751FA034615
:10455000012B1BD97B68DB6A1B687B617B69002BA5
:1045600000D152E000230093786879694FF400721B
:10457000082302F0EDFF0346002B00D045E07869E8
:10458000FFF7CEFA02467B689A6210E07B68183328
:104590001846FFF77DFA02467B689A6207E07B685F
:1045A00018331846FFF774FA02467B689A6207F1DF
:1045B0001003786810214FF4007202F039FF0346AF
:1045C000002B22D13A69174B1340002B1DD17B6879
:1045D0001B6B03F00F03012B02D9022B08D014E050
:1045E0007868FFF745FE0346002B00D00DE007E09A
:1045F0007868FFF77DFE0346002B00D005E000BF82
:104600007B6805221A71002306E0786802F060FEDC
:104610007B6802221A71012318461837BD4680BDF7
:10462000D09A000808E0FFFDAFF30080AFF30080F0
:1046300080B582B000AF78607B68002B02D11B4848
:10464000FDF74EF8FFF794FB7B681B79022B06D031
:104650007B681B79052B02D01448FDF741F87B6875
:104660001B79022B03D1FFF78BFB002319E07B683A
:1046700004221A71FFF784FB7868FFF789FE03466E
:10468000002B07D0786802F023FE7B6802221A71A3
:10469000012306E0786802F01BFE7B6802221A7193
:1046A000002318460837BD4680BD00BFE09A0008C9
:1046B00080B586B000AFF860B9607A603B60FB6897
:1046C000002B05D07B68002B02D03B68002B02D169
:1046D0001648FDF705F8FB681B79052B02D0134837
:1046E000FCF7FEFFBA683B6813445A1EFB689B6ADE
:1046F0009A4207D9FB685B6B43F08002FB685A6300
:1047000001230EE0FB6806221A71F868B9687A681E
:104710003B6803F04DF80346FB75FB6805221A71F0
:10472000FB7D18461837BD4680BD00BFF09A0008D3
:1047300080B586B000AFF860B9607A603B60FB6816
:10474000002B05D07B68002B02D03B68002B02D1E8
:104750001648FCF7C5FFFB681B79052B02D01348F0
:10476000FCF7BEFFBA683B6813445A1EFB689B6A9D
:104770009A4207D9FB685B6B43F08002FB685A637F
:1047800001230EE0FB6807221A71F868B9687A689D
:104790003B6803F055F80346FB75FB6805221A7168
:1047A000FB7D18461837BD4680BD00BF009B000842
:1047B00080B584B000AF78607B68002B02D10C48D4
:1047C000FCF78EFF7B681B79052B01D001230BE0E2
:1047D0007B6808221A71786803F07AF80346FB7345
:1047E0007B6805221A71FB7B18461037BD4680BDD9
:1047F000109B0008AFF30080AFF30080AFF30080A0
:1048000080B582B000AF786039607B68002B02D041
:104810003B68002B02D10B48FCF762FF7B681B79D9
:10482000052B01D0012308E07B689A6A3B685A6037
:104830003B684FF400721A60002318460837BD46E3
:1048400080BD00BF209B0008AFF30080AFF3008065
:1048500080B483B000AF20237B607B6883F3118832
:104860000C37BD465DF8047B704700BFAFF3008096
:1048700080B483B000AF00237B607B6883F3118832
:104880000C37BD465DF8047B704700BFAFF3008076
:1048900080B500AFFFF7DCFFFEF742F9FCF7D8FF69
:1048A00080BD00BFAFF30080AFF30080AFF30080A6
:1048B00080B500AFFCF7E4FFFEF73AF9094B1A6840
:1048C000084B9A420AD0074B9B699A68054B1B68B4
:1048D0009B689A4202D20448FCF702FFFFF7C8FF28
:1048E00080BD00BF00080020609B0008AFF300807F
:1048F00080B483B000AF78607B687A681A600C3748
:10490000BD465DF8047B7047AFF30080AFF30080D5
:1049100080B582B000AF7860FDF73AF87B689B689D
:10492000002B14BF00230123DBB218460837BD4615
:1049300080BD00BFAFF30080AFF30080AFF3008015
:1049400080B500AFFFF7A4FF80BD00BFAFF30080CC
:1049500080B500AFFFF7ACFF80BD00BFAFF30080B4
:1049600080B582B000AF78607868FFF7C1FF083784
:10497000BD4680BDAFF30080AFF30080AFF3008091
:1049800080B582B000AF7860396078683968FEF72A
:10499000E7FA0837BD4680BDAFF30080AFF3008073
:1049A00080B584B000AFF860B9607A60FB683033DE
:1049B0001846B9687A684FF0FF33FEF7C9FD034621
:1049C00018461037BD4680BDAFF30080AFF30080BE
:1049D00080B584B000AFF860B9607A60FB680C33D2
:1049E0001846B9687A684FF0FF33FEF7B1FC03460A
:1049F00018461037BD4680BDAFF30080AFF300808E
:104A000080B582B000AF78600B46FB707B6803F125
:104A10003002FB78104619464FF0FF32FEF720FDBA
:104A2000034618460837BD4680BD00BFAFF300807F
:104A300080B582B000AF78607B680C3318464FF0C9
:104A4000FF31FEF73DFC034618460837BD4680BDE2
:104A500080B584B000AFF8600B467A60FB72FB68EB
:104A600003F13002FB7A104619467A68FEF7F8FC2B
:104A7000034618461037BD4680BD00BFAFF3008027
:104A800080B582B000AF786039607B680C3318461F
:104A90003968FEF715FC034618460837BD4680BD49
:104AA00080B584B000AFF860B9607A603B60FB68A5
:104AB00030331846B9687A683B68FEF749FD03460B
:104AC00018461037BD4680BDAFF30080AFF30080BD
:104AD00080B584B000AFF860B9607A603B60FB6875
:104AE0000C331846B9687A683B68FEF731FC034618
:104AF00018461037BD4680BDAFF30080AFF300808D
:104B000080B500AF04F04CF880BD00BFAFF300806B
:104B100080B586B002AFF860B9607A60FB68154A6C
:104B20001A60FB6804331846FFF71AFFFB6801227E
:104B30001A72FB6803F10C02FB685433F9680091A8
:104B4000104619464FF48052BB68FEF759FBFB68CC
:104B500003F13002FB6803F582531433F9680091C6
:104B6000104619464FF480527B68FEF751FC10370F
:104B7000BD4680BD309B0008AFF30080AFF30080DE
:104B800080B582B000AF786039607B68002B02D1BD
:104B90000D48FCF7A5FDFFF7D3FE7B681B7A012BC0
:104BA00006D07B681B7A022B02D00748FCF798FDE1
:104BB0007868396804F01CF87B6802221A72FFF7E3
:104BC000C7FE0837BD4680BD509B0008AFF300808C
:104BD00080B582B000AF78600B46FB70FCF7D8FE62
:104BE0007B68002B02D11248FCF77AFD7B680C33FE
:104BF0001846FFF78DFE0346002B05D07B68043373
:104C000018460421FFF7BCFE7B6803F10C02FB7819
:104C100010461946FEF71CFB0346002B05DA7B689D
:104C2000043318468021FFF7ABFE0837BD4680BD30
:104C3000709B0008AFF30080AFF30080AFF30080FB
:104C400080B582B000AF78607868FEF769F8083701
:104C5000BD4680BDAFF30080AFF30080AFF30080AE
:104C600080B500AF03F0A4FC80BD00BFAFF30080AF
:104C700080B582B000AF78607B6801221A707B68D3
:104C800000225A607B6800229A607B680C331846C9
:104C9000FFF7D6FF0837BD4680BD00BFAFF30080E9
:104CA00080B483B000AF78604FF080437A685A6375
:104CB0004FF0804300221A614FF080430222DA60F5
:104CC0000C37BD465DF8047B704700BFAFF3008032
:104CD00080B400AF4FF080430022DA60BD465DF83B
:104CE000047B7047AFF30080AFF30080AFF3008028
:104CF00080B483B000AF78604FF080437A685A6325
:104D00000C37BD465DF8047B704700BFAFF30080F1
:104D100080B400AF4FF08043DB6803F00203002B48
:104D20000CBF00230123DBB21846BD465DF8047BAF
:104D3000704700BFAFF30080AFF30080AFF3008097
:104D400080B500AF03F0E4FC80BD00BFAFF300808E
:104D500080B582B000AF7860FFF7DAFF0346002B22
:104D600002D00448FCF7BCFC7868FFF799FF0837CD
:104D7000BD4680BD809B0008AFF30080AFF300808C
:104D800080B500AFFFF7A4FF80BD00BFAFF3008088
:104D900080B582B000AF7860FFF7BAFF034683F0BA
:104DA0000103DBB2002B02D00448FCF799FC7868C1
:104DB000FFF79EFF0837BD4680BD00BF909B0008EF
:104DC00080B483B000AF20237B607B6883F31188BD
:104DD0000C37BD465DF8047B704700BFAFF3008021
:104DE00080B483B000AF00237B607B6883F31188BD
:104DF0000C37BD465DF8047B704700BFAFF3008001
:104E000080B500AFFFF7DCFF80BD00BFAFF30080CF
:104E100080B500AFFFF7E4FF80BD00BFAFF30080B7
:104E200080B500AFFFF7ECFFFDF78AFEFCF740FD11
:104E300080BD00BFAFF30080AFF30080AFF3008010
:104E400080B500AFFCF74CFDFDF782FEFFF7E0FFF9
:104E500080BD00BFAFF30080AFF30080AFF30080F0
:104E600080B500AFFFF7DCFF80BD00BFAFF300806F
:104E700080B500AFFFF7E4FF80BD00BFAFF3008057
:104E800080B485B000AF78607B685A1C7A601B786C
:104E9000FB817B681B781B029AB2FB8913439BB290
:104EA000FB81FB8918461437BD465DF8047B7047CB
:104EB00080B582B000AF78607B6893F85E207B6835
:104EC00083F86620786803F083F97B685B681B6869
:104ED000002B05D07B685B681B68786801219847C8
:104EE0007B6803221A700837BD4680BDAFF300808F
:104EF000F0B585B000AF78607B6893F85C3003F064
:104F00007F027B6893F85D301B021343B3F5407F4B
:104F10005AD0B3F5407F12D8022B00F0EE80022B5E
:104F200005D8002B28D0012B00F0DC80A6E1B3F5DA
:104F3000807F2ED0B3F5817F00F036819EE1B3F5FE
:104F4000C06F74D0B3F5C06F08D840F202329342FC
:104F500000F05F81B3F5A06F51D08FE1B3F5106F12
:104F600000F0988040F60242934200F0BB80B3F517
:104F7000006F00F0828081E17B6803F164027B684E
:104F80001A657B6802225A657B6800229A650123B4
:104F900075E17B6893F85E30012B13D17B68B3F821
:104FA000643023F002039AB27B68A3F864207B6824
:104FB00000221A657B6800225A657B6800229A6588
:104FC00001235CE100235AE17B6893F85E30012BFA
:104FD00013D17B68B3F8643043F002039AB27B6864
:104FE000A3F864207B6800221A657B6800225A655A
:104FF0007B6800229A65012341E100233FE17B6841
:1050000093F85C30002B07D17B6893F85D30052B5B
:1050100002D17868FFF74CFF7B6800221A657B6835
:1050200000225A657B6800229A65012327E17B688C
:105030005B685C687B6893F85F607B6893F85E50A0
:105040007B6860331846FFF71BFF034678683146DC
:105050002A46A047F860FB68002B01D100230EE12F
:10506000FB685A687B681A65FB681A687B685A6532
:105070007B6800229A65012301E17B6803F16702E6
:105080007B681A657B6801225A657B6800229A65F5
:105090000123F4E07B6893F85E207B6883F8672047
:1050A0007B6893F86730002B03D17B6803221A706A
:1050B00002E07B6804221A707B685B681B68002B27
:1050C00005D07B685B681B687868022198477B681D
:1050D00000221A657B6800225A657B6800229A6567
:1050E0000123CCE07B68684A1A657B6802225A6516
:1050F0007B6800229A650123C1E07B6893F86030E9
:10510000DBB25BB2002B27DA7B6893F8603003F0E8
:105110000F03DBB27868194603F0A2F80346012BAF
:1051200002D0022B0BD015E07B68584A1A657B68C9
:1051300002225A657B6800229A6501239FE07B6802
:10514000534A1A657B6802225A657B6800229A6579
:10515000012394E0002392E07B6893F8603003F031
:105160000F03DBB27868194603F052F80346012BAF
:1051700002D0022B0BD015E07B68444A1A657B688D
:1051800002225A657B6800229A65012377E07B68DA
:105190003F4A1A657B6802225A657B6800229A653D
:1051A00001236CE000236AE07B6893F85E30002BFB
:1051B00001D0002363E07B6893F8603003F00F03B5
:1051C000002B1BD07B6893F86030DBB25BB2002B06
:1051D0000ADA7B6893F8603003F00F03DBB278687B
:1051E000194603F0C5F909E07B6893F8603003F0D5
:1051F0000F03DBB27868194603F09AF97B68002246
:105200001A657B6800225A657B6800229A65012333
:1052100035E07B6893F85E30002B01D000232EE050
:105220007B6893F8603003F00F03002B1BD07B6882
:1052300093F86030DBB25BB2002B0ADA7B6893F83C
:10524000603003F00F03DBB27868194603F050F9C1
:1052500009E07B6893F8603003F00F03DBB27868F5
:10526000194603F025F97B6800221A657B68002245
:105270005A657B6800229A65012300E000231846E6
:105280001437BD46F0BD00BFA09B0008C09B0008BE
:10529000B09B0008AFF30080AFF30080AFF3008055
:1052A00080B500AF02F09CFE80BD00BFAFF3008070
:1052B00080B485B000AF78607B6801221A707B688B
:1052C00000225A600023FB600FE07A68FB68083315
:1052D0009B00134400225A607B68FA680E3200215A
:1052E00043F82210FB680133FB60FB68042BECD908
:1052F0007B6800221A817B6800225A811437BD46E0
:105300005DF8047B704700BFAFF30080AFF300800F
:1053100080B586B000AFF8607A603B600B46FB72E8
:10532000FB7AFA6802339B0013445B689B697B61DC
:105330007B6900221A707B697A68DA607B693A6857
:105340005A607B6900229A60FB7AF868194602F07D
:10535000C7FF1837BD4680BDAFF30080AFF30080B4
:1053600080B586B000AFF8607A603B600B46FB7298
:10537000FB7AFA6802339B0013445B685B697B61CC
:105380007B6900221A707B697A68DA607B693A6807
:105390005A607B6900229A60FB7AF868194602F02D
:1053A000E7FF1837BD4680BDAFF30080AFF3008044
:1053B00080B582B000AF78600B46FB70FCF7E8FA6E
:1053C0007B68002B02D11248FCF78AF97B685A8966
:1053D000FB78012101FA03F39BB213409BB2002B2F
:1053E00001D0012310E07B685A89FB78012101FA82
:1053F00003F39BB213439AB27B685A81FB787868B7
:10540000194603F00DF8002318460837BD4680BD45
:10541000D09B0008AFF30080AFF30080AFF30080B3
:1054200080B582B000AF78600B46FB70FCF7B0FA35
:105430007B68002B02D11248FCF752F97B681A896D
:10544000FB78012101FA03F39BB213409BB2002BBE
:1054500001D0012310E07B681A89FB78012101FA51
:1054600003F39BB213439AB27B681A81FB78786886
:10547000194602F0F5FF002318460837BD4680BDE7
:10548000F09B0008AFF30080AFF30080AFF3008023
:1054900080B584B000AF78607B6802221A707B68A8
:1054A0000022A3F864207B68002283F866207B68D2
:1054B000002283F867207B6800221A817B68002223
:1054C0005A810023FB6009E07A68FB6802339B0085
:1054D000134400225A60FB680133FB60FB68052B14
:1054E000F2D97B68002283F84C20786802F0D8FD5E
:1054F0001037BD4680BD00BFAFF30080AFF3008022
:1055000080B584B000AF78600B46FB707B680022EA
:1055100083F84C207B685C33FA78786811461A4629
:1055200002F0C6FE7B685B689B68002B0AD07B6834
:105530005B689B6878689847034683F00103DBB299
:10554000002B27D07B6893F85C3003F06003002BBE
:1055500008D17868FFF7CCFC034683F00103DBB287
:10556000002B17D07868002102F0C2FF7868002174
:1055700002F09EFF7B685B681B68002B05D07B6890
:105580005B681B687868052198477B68062283F86A
:105590004C206CE07B6862331846FFF771FC0346D1
:1055A000FB607B685A6DFB689A4202D97B68FA6897
:1055B0005A657B6893F85C30DBB25BB2002B2BDA68
:1055C0007B685B6D002B14D07B68012283F84C2034
:1055D0007B681A6D7B685B6D78680021FFF7C0FE01
:1055E000FFF73EFC78680021FFF71AFFFFF740FC49
:1055F0003DE07B68032283F84C207868002100227C
:105600000023FFF785FEFFF72BFC78680021FFF7EA
:10561000CFFEFFF72DFC2AE07B685B6D002B14D0DA
:105620007B68042283F84C207B681A6D7B685B6D75
:1056300078680021FFF76CFEFFF712FC7868002104
:10564000FFF7B6FEFFF714FC11E07B68052283F834
:105650004C207868002100220023FFF781FEFFF72D
:10566000FFFB78680021FFF7DBFEFFF701FC103736
:10567000BD4680BDAFF30080AFF30080AFF3008084
:1056800080B584B000AF78600B46FB707B6893F800
:105690004C30062B76D801A252F823F04F57000861
:1056A000B95600080F5700084F5700084F57000819
:1056B00035570008555700087B6862331846FFF7D6
:1056C000DFFB0346FB607B685A6DFB689A421ED283
:1056D0007B685B6D7A68D268128AB3FBF2F102FBD9
:1056E00001F29B1A002B12D17868002100220023BE
:1056F000FFF736FEFFF7B4FB78680021FFF790FE56
:10570000FFF7B6FB7B68022283F84C203DE07B6804
:10571000032283F84C207868002100220023FFF741
:10572000F7FDFFF79DFB78680021FFF741FEFFF7CB
:105730009FFB2AE07B689B6D002B03D07B689B6DF1
:10574000786898477B68002283F84C201DE0104859
:10575000FBF7C6FF7868002102F0CAFE78680021D6
:1057600002F0A6FE7B685B681B68002B05D07B6897
:105770005B681B687868052198477B68062283F878
:105780004C2002E00248FBF7ABFF1037BD4680BD5E
:10579000109C0008AFF30080AFF30080AFF30080EF
:1057A00080B582B000AF78600B46FB707B6893F8E1
:1057B0004C30062B52D801A252F823F0275800088B
:1057C0002758000827580008FF570008D957000835
:1057D000275800082D5800087B68052283F84C20C4
:1057E0007868002100220023FFF7BAFDFFF738FB9D
:1057F00078680021FFF714FEFFF73AFB31E07B6881
:10580000DB689B699B68002B00D02AE07B689B6D5E
:10581000002B03D07B689B6D786898477B680022DB
:1058200083F84C201DE01048FBF75AFF78680021F0
:1058300002F05EFE7868002102F03AFE7B685B6849
:105840001B68002B05D07B685B681B6878680521A6
:1058500098477B68062283F84C2002E00248FBF759
:105860003FFF0837BD4680BD209C0008AFF3008095
:1058700080B489B000AFF860B9607A603B60BB6803
:105880007B613B68002B02D1BB683B6101E03B6858
:105890003B61FB680B33BB617B697A68B3FBF2F257
:1058A000796801FB02F29B1AFB61FB693033FB61F3
:1058B000FB69392B02DDFB690733FB61BB69013BE7
:1058C000BB61FB69DAB2BB691A707A697B68B2FBAB
:1058D000F3F37B613A697B68B2FBF3F33B613B69AD
:1058E000002BD9D1FB680B331A46BB69D31AFB6175
:1058F000FB685A1CFA60BA69511CB96112781A70B7
:10590000FB69013BFB61FB69002BF1D1FB68184689
:105910002437BD465DF8047B704700BFAFF30080BD
:1059200080B584B000AFF860B9607A60F868B96893
:105930007A680023FFF79CFF034618461037BD46E0
:1059400080BD00BFAFF30080AFF30080AFF30080F5
:10595000B0B586B000AFF860C7E90023BB6A002B82
:1059600002D0BB6A092B01D90923BB62BB6A5A1E4C
:10597000214B53F82230BB62D7E90001FBF778F8DE
:1059800003467B61F86879690A220023FFF770FFFC
:10599000F860FB685A1CFA602E221A707869FAF7D0
:1059A000E9FD02460B46D7E90001FAF795FC0246ED
:1059B0000B4614461D46B86AFAF7CCFD02460B4664
:1059C00020462946FAF73CFE02460B461046194689
:1059D000FBF74EF803467B61BA6A084BA3FB021340
:1059E000DB08F86879690A22FFF742FF0346184688
:1059F0001837BD46B0BD00BF309C0008CDCCCCCC24
:105A000080B596B002AFF860B9607A6000237B631E
:105A1000BB685A1CBA601B7887F8473097F8473044
:105A2000002B01D17B6B3FE297F84730252B0BD041
:105A3000FB681B689B6897F84720F86811469847F1
:105A40007B6B01337B632EE207F11003FB6407F1EC
:105A50001003BB64002387F83230BB681B782D2B02
:105A600005D1BB680133BB60012387F832302023A6
:105A700087F84630BB681B78302B05D1BB680133F3
:105A8000BB60302387F846300023BB63BB685A1CD9
:105A9000BA601B7887F8473097F847302F2B09D921
:105AA00097F84730392B05D897F84730303B87F8BF
:105AB000473012E097F847302A2B06D17B681A1D31
:105AC0007A601B6887F8473007E000BF0023FB635C
:105AD00097F847302E2B37D10AE0BA6B13469B005C
