:020000040800F2
:1000000000040020C1010008C10D0008C10D000856
:10001000C10D0008C10D0008C10D0008C10D000888
:10002000C10D0008C10D0008C10D000851400008B5
:10003000C10D0008C10D0008C10D0008C10D000868
:10004000C10D0008C10D0008C10D0008C10D000858
:10005000C10D0008C10D0008C10D0008C10D000848
:10006000C10D0008C10D0008C10D0008C1680008DD
:100070001169000861690008B1690008016A000897
:10008000516A0008A16A000801710008C10D00084A
:10009000C10D0008C10D0008C10D0008C10D000808
:1000A000C10D0008C10D0008C10D0008C10D0008F8
:1000B000B1960008C10D0008C10D0008C10D00086F
:1000C000C10D0008C10D0008C10D0008C10D0008D8
:1000D000C10D0008919A0008C10D0008C10D00086B
:1000E000C10D0008C10D0008C10D0008C10D0008B8
:1000F000C10D0008C10D0008C10D0008F16A00081B
:10010000C10D0008D1810008C10D0008C10D000813
:10011000B19A0008C10D0008C10D0008C10D00080A
:10012000416B0008916B0008E16B0008316C00081E
:10013000816C000881750008C10D0008C10D000820
:10014000C10D0008C10D0008C10D0008818F000815
:10015000D16C0008216D0008716D0008C10D000808
:10016000C10D0008C10D0008C10D0008C10D000837
:10017000C10D0008A18F0008C10D0008C10D0008C5
:10018000C10D0008C10D0008C10D0008C10D000817
:10019000C10D0008C10D0008C10D0008C10D000807
:1001A000C10D0008C10D0008C10D0008C10D0008F7
:1001B000C10D0008C10D0008C10D0008C10D0008E7
:1001C00072B6254880F30988022080F31488BFF3B3
:1001D0006F8F00F0DDFD09F0A3FC20482049214A83
:1001E00091423CBF41F8040BFFF7FABF1E491A4A7F
:1001F00091423CBF41F8040BFFF7FABF1B491C4A70
:100200001C4B9A423EBF51F8040B42F8040BFFF717
:10021000F8BF00201849194A91423CBF41F8040B2D
:10022000FFF7FABF00F0BCFD154C164DAC4280F252
:10023000058054F8041B8847FFF7F8BF15F050FEFF
:10024000114C124DAC4280F2058054F8041B8847D3
:10025000FFF7F8BF00F0ACBD00080020555555551C
:10026000000000200004002000040020408D010850
:10027000000800200C08002010080020F0BE00201C
:10028000C0010008C0010008C0010008C00100084A
:100290002DE9F04FC1F80CD0D0F80CD0BDE8F08FAC
:1002A00001F036F902F0F4FA002383F311882846AE
:1002B000A047002002F0ACF802F0E2FA01F010F9D9
:1002C00001F046FE01F024F902F0E2FA00DFFEE759
:1002D00081F0004102E000BF83F0004330B54FEAF7
:1002E00041044FEA430594EA050F08BF90EA020F64
:1002F0001FBF54EA000C55EA020C7FEA645C7FEAF7
:10030000655C00F0E2804FEA5454D4EB5555B8BF19
:100310006D420CDD2C4480EA020281EA030382EA8A
:10032000000083EA010180EA020281EA0303362D1C
:1003300088BF30BD11F0004F4FEA01314FF4801CEF
:100340004CEA113102D0404261EB410113F0004F01
:100350004FEA03334CEA133302D0524263EB4303B8
:1003600094EA050F00F0A780A4F10104D5F1200E56
:100370000DDB02FA0EFC22FA05F2801841F10001B1
:1003800003FA0EF2801843FA05F359410EE0A5F185
:1003900020050EF1200E012A03FA0EFC28BF4CF0B6
:1003A000020C43FA05F3C01851EBE37101F000456C
:1003B00007D54FF0000EDCF1000C7EEB00006EEB79
:1003C0000101B1F5801F1BD3B1F5001F0CD3490803
:1003D0005FEA30004FEA3C0C04F101044FEA44525A
:1003E00012F5800F80F09A80BCF1004F08BF5FEAE1
:1003F000500C50F1000041EB045141EA050130BDC1
:100400005FEA4C0C404141EB010111F4801FA4F163
:100410000104E9D191F0000F04BF01460020B1FAB8
:1004200081F308BF2033A3F10B03B3F120020CDAF0
:100430000C3208DD02F1140CC2F10C0201FA0CF0CE
:1004400021FA02F10CE002F11402D8BFC2F1200C33
:1004500001FA02F120FA0CFCDCBF41EA0C019040E9
:10046000E41AA2BF01EB0451294330BD6FEA040432
:100470001F3C1CDA0C340EDC04F11404C4F120021D
:1004800020FA04F001FA02F340EA030021FA04F32F
:1004900045EA030130BDC4F10C04C4F1200220FA86
:1004A00002F001FA04F340EA0300294630BD21FAC4
:1004B00004F0294630BD94F0000F83F4801306BF8A
:1004C00081F480110134013D4EE77FEA645C18BF7E
:1004D0007FEA655C29D094EA050F08BF90EA020F15
:1004E00005D054EA000C04BF1946104630BD91EA0D
:1004F000030F1EBF0021002030BD5FEA545C05D110
:100500004000494128BF41F0004130BD14F580044E
:100510003CBF01F5801130BD01F0004545F0FE41C2
:1005200041F470014FF0000030BD7FEA645C1ABFF7
:10053000194610467FEA655C1CBF0B46024650EA2E
:10054000013406BF52EA033591EA030F41F400215A
:1005500030BD00BF90F0000F04BF0021704730B5E0
:100560004FF4806404F132044FF000054FF00001B5
:1005700050E700BF90F0000F04BF0021704730B576
:100580004FF4806404F1320410F0004548BF40424B
:100590004FF000013EE700BF42004FEAE2014FEAA0
:1005A00031014FEA02701FBF12F07F4393F07F4F7B
:1005B00081F06051704792F0000F14BF93F07F4FAD
:1005C000704730B54FF4607401F0004521F00041F0
:1005D00020E700BF50EA010208BF704730B54FF076
:1005E00000050AE050EA010208BF704730B511F07B
:1005F000004502D5404261EB41014FF4806404F1B3
:1006000032045FEA915C3FF4DCAE4FF003025FEA34
:10061000DC0C18BF03325FEADC0C18BF033202EBBC
:10062000DC02C2F1200300FA03FC20FA02F001FA16
:1006300003FE40EA0E0021FA02F11444C1E600BFB5
:1006400070B54FF0FF0C4CF4E06C1CEA11541DBF68
:100650001CEA135594EA0C0F95EA0C0F00F0DEF833
:100660002C4481EA030621EA4C5123EA4C5350EA18
:10067000013518BF52EA033541F4801143F4801369
:1006800038D0A0FB02CE4FF00005E1FB02E506F0FA
:100690000042E0FB03E54FF00006E1FB03569CF04F
:1006A000000F18BF4EF0010EA4F1FF04B6F5007F55
:1006B00064F5407404D25FEA4E0E6D4146EB0606C7
:1006C00042EAC62141EA55514FEAC52040EA5E5050
:1006D0004FEACE2EB4F1FD0C88BFBCF5E06F1ED8FA
:1006E000BEF1004F08BF5FEA500E50F1000041EB31
:1006F000045170BD06F0004646EA010140EA0200DE
:1007000081EA0301B4EB5C04C2BFD4EB0C0541EAFF
:10071000045170BD41F480114FF0000E013C00F314
:10072000AB8014F1360FDEBF002001F0004170BD38
:10073000C4F10004203C35DA0C341BDC04F1140451
:10074000C4F1200500FA05F320FA04F001FA05F2DD
:1007500040EA020001F0004221F0004110EBD370AA
:1007600021FA04F642EB06015EEA430E08BF20EAD6
:10077000D37070BDC4F10C04C4F1200500FA04F379
:1007800020FA05F001FA04F240EA020001F000410B
:1007900010EBD37041F100015EEA430E08BF20EA7E
:1007A000D37070BDC4F1200500FA05F24EEA020EC6
:1007B00020FA04F301FA05F243EA020321FA04F0F5
:1007C00001F0004121FA04F220EA020000EBD370AC
:1007D0005EEA430E08BF20EAD37070BD94F0000FAC
:1007E0000FD101F00046400041EB010111F4801FE0
:1007F00008BF013CF7D041EA060195F0000F18BF91
:10080000704703F00046520043EB030313F4801FCC
:1008100008BF013DF7D043EA0603704794EA0C0F86
:100820000CEA135518BF95EA0C0F0CD050EA41069C
:1008300018BF52EA4306D1D181EA030101F0004119
:100840004FF0000070BD50EA410606BF1046194641
:1008500052EA430619D094EA0C0F02D150EA01364D
:1008600013D195EA0C0F05D152EA03361CBF10468E
:1008700019460AD181EA030101F0004141F0FE412D
:1008800041F470014FF0000070BD41F0FE4141F4B1
:10089000780170BD70B54FF0FF0C4CF4E06C1CEAB1
:1008A00011541DBF1CEA135594EA0C0F95EA0C0F66
:1008B00000F0A7F8A4EB050481EA030E52EA033521
:1008C0004FEA013100F088804FEA03334FF0805542
:1008D00045EA131343EA12634FEA022245EA11156F
:1008E00045EA10654FEA00260EF000419D4208BF20
:1008F000964244F1FD0404F5407402D25B084FEACD
:100900003202B61A65EB03055B084FEA32024FF478
:1009100080104FF4002CB6EB020E75EB030E22BFD5
:10092000B61A754640EA0C005B084FEA3202B6EB95
:10093000020E75EB030E22BFB61A754640EA5C0044
:100940005B084FEA3202B6EB020E75EB030E22BFD4
:10095000B61A754640EA9C005B084FEA3202B6EBD5
:10096000020E75EB030E22BFB61A754640EADC0094
:1009700055EA060E18D04FEA051545EA16754FEAF6
:1009800006164FEAC30343EA52734FEAC2025FEA14
:100990001C1CC0D111F4801F0BD141EA00014FF0A3
:1009A00000004FF0004CB6E711F4801F04BF014374
:1009B0000020B4F1FD0C88BFBCF5E06F3FF6AFAE90
:1009C000B5EB030C04BFB6EB020C5FEA500C50F120
:1009D000000041EB045170BD0EF0004E4EEA1131A3
:1009E00014EB5C04C2BFD4EB0C0541EA045170BDAA
:1009F00041F480114FF0000E013C90E645EA060EEE
:100A00008DE60CEA135594EA0C0F08BF95EA0C0F1B
:100A10003FF43BAF94EA0C0F0AD150EA01347FF463
:100A200034AF95EA0C0F7FF425AF104619462CE73A
:100A300095EA0C0F06D152EA03353FF4FDAE10469D
:100A4000194622E750EA410618BF52EA43067FF4EE
:100A5000C5AE50EA41047FF40DAF52EA43057FF47E
:100A6000EBAE12E7000000000000000000000000F4
:100A70004FEA410212F5001215D211D56FF47873C6
:100A8000B3EB625212D94FEAC12343F0004343EA69
:100A9000505311F0004F23FA02F018BF4042704744
:100AA0004FF00000704750EA013005D111F00040CE
:100AB00008BF6FF0004070474FF00000704700BF64
:100AC0004FEA4102B2F1E04324BFB3F5001CDCF170
:100AD000FE5C0DD901F0004C4FEAC0024CEA5070A8
:100AE000B2F1004F40EB830008BF20F001007047D7
:100AF00011F0804F21D113F13872BCBF01F00040DA
:100B0000704741F480114FEA5252C2F11802C2F10B
:100B1000200C10FA0CF320FA02F018BF40F001008C
:100B20004FEAC1234FEAD32303FA0CFC40EA0C003E
:100B300023FA02F34FEA4303CCE77FEA625307D17B
:100B400050EA01331EBF4FF0FE4040F440007047B2
:100B500001F0004040F0FE4040F40000704700BF4C
:100B60004FF0FF3C06E000BF4FF0010C02E000BF79
:100B70004FF0010C4DF804CD4FEA40024FEA41031B
:100B80007FEA226C18BF7FEA236C11D001B052EAD1
:100B9000530C18BF90EA010F58BFB2EB030088BF97
:100BA000C81738BF6FEAE17018BF40F00100704706
:100BB0007FEA226C02D15FEA402C05D17FEA236CE8
:100BC000E4D15FEA412CE1D05DF8040B704700BF2F
:100BD000844608466146FFE70FB5FFF7C9FF0028C6
:100BE00048BF10F1000F0FBD4DF808EDFFF7F4FFFF
:100BF0000CBF012000205DF808FB00BF4DF808ED98
:100C0000FFF7EAFF34BF012000205DF808FB00BFBA
:100C10004DF808EDFFF7E0FF94BF012000205DF8DC
:100C200008FB00BF4DF808EDFFF7D2FF94BF01208D
:100C300000205DF808FB00BF4DF808EDFFF7C8FF86
:100C400034BF012000205DF808FB00BF0000000059
:100C5000844641EA000313F003036DD1403A41D3C7
:100C600051F8043B40F8043B51F8043B40F8043B86
:100C700051F8043B40F8043B51F8043B40F8043B76
:100C800051F8043B40F8043B51F8043B40F8043B66
:100C900051F8043B40F8043B51F8043B40F8043B56
:100CA00051F8043B40F8043B51F8043B40F8043B46
:100CB00051F8043B40F8043B51F8043B40F8043B36
:100CC00051F8043B40F8043B51F8043B40F8043B26
:100CD00051F8043B40F8043B51F8043B40F8043B16
:100CE000403ABDD2303211D351F8043B40F8043BB6
:100CF00051F8043B40F8043B51F8043B40F8043BF6
:100D000051F8043B40F8043B103AEDD20C3205D3C5
:100D100051F8043B40F8043B043AF9D2043208D0BD
:100D2000D2071CBF11F8013B00F8013B01D30B882F
:100D300003806046704700BF082A13D38B078DD00D
:100D400010F003038AD0C3F10403D21ADB071CBFDF
:100D500011F8013B00F8013B80D331F8023B20F849
:100D6000023B7BE7043AD9D3013A11F8013B00F882
:100D7000013BF9D20B7803704B7843708B7883700A
:100D80006046704700000000000000000000000006
:100D900080B400AFBD465DF8047B7047AFF30080C0
:100DA00080B400AFBD465DF8047B7047AFF30080B0
:100DB00080B400AFFEE700BFAFF30080AFF3008068
:100DC00080B400AFFEE700BFAFF30080AFF3008058
:100DD00080B485B000AF78607B6803F00703FB60E8
:100DE0000C4BDB68BB60BA684FF6FF031340BB6077
:100DF000FB681A02BB68134343F0BF6343F400333C
:100E0000BB60044BBA68DA601437BD465DF8047BFA
:100E1000704700BF00ED00E0AFF30080AFF300804B
:100E200080B483B000AF03463960FB7197F9073097
:100E3000002B0BDA0D49FB7903F00F03043B3A68F2
:100E4000D2B21201D2B20B441A7609E0084997F9DE
:100E500007303A68D2B21201D2B20B4483F80023B1
:100E60000C37BD465DF8047B704700BF00ED00E025
:100E700000E100E0AFF30080AFF30080AFF300804B
:100E800080B500AF0E4B00229A600320FFF7A0FF51
:100E90000C4B0C4AD26842F08072DA600A4B0A4A64
:100EA000126842F001021A606FF004000121FFF79E
:100EB000B7FF6FF001000221FFF7B2FF80BD00BF56
:100EC00000ED00E0F0ED00E0001000E0AFF3008086
:100ED00080B483B000AFEFF312833B603B687B606C
:100EE0007B6818460C37BD465DF8047B704700BF31
:100EF00080B483B000AF78607B68002B14BF002300
:100F00000123DBB218460C37BD465DF8047B704701
:100F100080B483B000AFEFF305837B607B68C3F3DD
:100F20000803002B0CBF00230123DBB218460C374B
:100F3000BD465DF8047B7047AFF30080AFF30080DF
:100F400080B483B000AF20237B607B6883F311887B
:100F50000C37BD465DF8047B704700BFAFF30080DF
:100F600080B483B000AF00237B607B6883F311887B
:100F70000C37BD465DF8047B704700BFAFF30080BF
:100F800080B500AFFFF7DCFF80BD00BFAFF300808E
:100F900080B500AFFFF7E4FF80BD00BFAFF3008076
:100FA00080B400AF72B6BD465DF8047B704700BFE9
:100FB00080B483B000AF00237B607B6883F311882B
:100FC00062B60C37BD465DF8047B7047AFF3008016
:100FD00080B400AFBD465DF8047B7047AFF300807E
:100FE00080B400AF034B5B681846BD465DF8047BD8
:100FF000704700BF001000E0AFF30080AFF3008047
:1010000080B400AF4FF080435B6A1846BD465DF880
:10101000047B7047AFF30080AFF30080AFF3008034
:1010200080B500AF04F07CFB80BD00BFAFF3008053
:1010300080B582B000AF7860786804F079FB08373B
:10104000BD4680BDAFF30080AFF30080AFF30080FA
:1010500080B500AFFFF7D4FF0346184680BD00BF40
:1010600080B500AF00F024FAFFF7A2FF80BD00BFFB
:1010700080B500AFFFF764FF01F002FC00F030FA2A
:1010800080BD00BFAFF30080AFF30080AFF30080FE
:1010900080B500AF00F03CFA01F0FAFB094B1A688A
:1010A000084B9A420AD0074B9B699A68054B1B680C
:1010B0009B689A4202D2044800F01AF9FFF750FFE9
:1010C00080BD00BF1008002090820108AFF30080AF
:1010D00080B500AFFFF754FF01F0E2FB00F030FAFB
:1010E00080BD00BFAFF30080AFF30080AFF300809E
:1010F00080B500AF00F03CFA01F0DAFBFFF748FFE3
:1011000080BD00BFAFF30080AFF30080AFF300807D
:1011100080B500AFFFF79CFF0346184680BD00BFB7
:1011200080B584B000AF00F07BFA334BDB69FB6025
:10113000FFF7EEFFB8602AE02F4B9A6AFB689B68C6
:101140001A442D4B9A62FB681B682C4A5A60FB6854
:101150001A68294BDA61FB68DB683B60FB68002298
:10116000DA60254BDA69254B9A4201D1FFF758FF27
:10117000FFF7BEFFFB681A693B6810469847FFF708
:10118000A7FF1D4BDB69FB60FFF7C2FFB860FB6880
:101190009A68194B9B6AB968CB1A9A42CCD9164BFC
:1011A000DA69164B9A4200D123E0134B9A6AFB6826
:1011B0009B681A44BB68D31A7B607B68012B01D8FB
:1011C00002237B60BA687B6813441846FFF730FF40
:1011D000FFF79EFF0246084B9B6AD21AB9687B68EC
:1011E0001944054B9B6ACB1A9A4202D9044800F075
:1011F0007FF81037BD4680BD100800202C08002065
:1012000080820108AFF30080AFF30080AFF300806D
:1012100080B483B000AF7860044B9B697A689A61B0
:101220000C37BD465DF8047B704700BF10080020F6
:1012300080B483B000AF786039607B683A689A61A7
:101240000C37BD465DF8047B704700BFAFF30080EC
:1012500080B582B000AF7860FFF7BAFEFCE700BF50
:1012600080B584B002AFFFF70BFE00F091FC00F0F8
:1012700097FA01F03DFA02F043FD02F0A9FD01F0FA
:10128000B7FA00F0FDF91348402100F0A1FF024633
:10129000114B9A61104B9B69012283F820200E4B61
:1012A0009B690E4ADA61FFF7DBFE0D48FFF7B0FFDE
:1012B000002300930B484FF4807101220A4B01F088
:1012C0002FF8786078680949FFF7B2FF0837BD4604
:1012D00080BD00BF500C002010080020000400203A
:1012E00080830108F80C0020511200087062010888
:1012F00080B582B000AF7860FFF752FE014B7A688C
:10130000DA62FEE710080020AFF30080AFF3008040
:1013100080B500AF00F084F9FFF702FF80BD00BF89
:1013200080B582B000AFFFF7D3FD78607868FFF733
:10133000DFFD0346002B09D0FFF7EAFD0346002B33
:1013400002D0FFF7C5FE01E0FFF792FE7B6818466A
:101350000837BD4680BD00BFAFF30080AFF300800B
:1013600080B582B000AF78607868FFF7C1FD0346B2
:10137000002B0BD0FFF7CCFD0346002B02D0FFF76C
:10138000B7FE03E000F05CFDFFF782FE0837BD46C4
:1013900080BD00BFAFF30080AFF30080AFF30080EB
:1013A00080B485B000AFF860B9607A60FA68BB6855
:1013B000D21A7968BB68CB1A9A422CBF002301234A
:1013C000DBB218461437BD465DF8047B704700BF9A
:1013D00080B584B000AF7860FFF702FEF860FA686D
:1013E0007B681344BB6000BFFFF7FAFD0346184655
:1013F000F968BA68FFF7D4FF0346002BF4D1103721
:10140000BD4680BDAFF30080AFF30080AFF3008036
:1014100080B483B000AF20237B607B6883F31188A6
:101420000C37BD465DF8047B704700BFAFF300800A
:1014300080B483B000AF00237B607B6883F31188A6
:101440000C37BD465DF8047B704700BFAFF30080EA
:1014500080B500AFFFF7DCFF80BD00BFAFF30080B9
:1014600080B500AFFFF7E4FF80BD00BFAFF30080A1
:1014700080B400AF4FF080435B6A1846BD465DF80C
:10148000047B7047AFF30080AFF30080AFF30080C0
:1014900080B500AFFFF7ECFF0346184680BD00BFE4
:1014A00080B500AFFFF7F4FF0346184680BD00BFCC
:1014B00080B500AF054B1B6B002B03D1034B5B6B5F
:1014C000002B02D00248FFF713FF80BD1008002058
:1014D00090620108AFF30080AFF30080AFF30080AB
:1014E00080B500AF074B1B6B002B03D1054B5B6B2B
:1014F000002B02D00448FFF7FBFE024B01225A6387
:1015000080BD00BF1008002098620108AFF3008082
:1015100080B500AF074B1B6B002B03D1054B5B6BFA
:10152000002B02DC0448FFF7E3FE024B00225A6363
:1015300080BD00BF10080020A0620108AFF300804A
:1015400080B500AF074B1B6B002B03DD054B5B6BBE
:10155000002B02D00448FFF7CBFE024B01225A6356
:1015600080BD00BF10080020A8620108AFF3008012
:1015700080B500AF074B1B6B002B03DD054B5B6B8E
:10158000002B02DC0448FFF7B3FE024B00225A6333
:1015900080BD00BF10080020B0620108AFF30080DA
:1015A00080B500AFFFF754FF094B1B6B002B03DB2B
:1015B000074B5B6B002B02D00648FFF799FE044BEC
:1015C0001B6B5A1C024B1A63FFF74AFF80BD00BF1A
:1015D00010080020B8620108AFF30080AFF300806C
:1015E00080B500AFFFF734FF094B1B6B002B03DD09
:1015F000074B5B6B002B02D00648FFF779FE044BCC
:101600001B6B5A1E024B1A63FFF72AFF80BD00BFF7
:1016100010080020C0620108AFF30080AFF3008023
:1016200080B500AF054B1B6B002B03DB034B5B6BE3
:10163000002B02DC0248FFF75BFE80BD1008002093
:10164000C8620108AFF30080AFF30080AFF3008001
:1016500080B500AF054B1B6B002B03D1034B5B6BBD
:10166000002B02DC0248FFF743FE80BD100800207B
:10167000D0620108AFF30080AFF30080AFF30080C9
:1016800080B400AF044B40229A63034B034ADA63F1
:10169000BD465DF8047B704710080020500800200C
:1016A00090B583B000AF7860134BDC6BFFF7F8FEAA
:1016B00003462360104BDB6B0F4A92695A600E4B56
:1016C000DB6B7A68526A9A600B4BDB6B7A6892F834
:1016D00020201A73084BDB6B03F11002064BDA6310
:1016E000054BDA6B054B9A4202D3034B044ADA638B
:1016F0000C37BD4690BD00BF10080020500C0020E4
:1017000050080020AFF30080AFF30080AFF30080FB
:1017100080B400AF4FF080435B6A1846BD465DF869
:10172000047B7047AFF30080AFF30080AFF300801D
:1017300080B582B000AF7860786803F0D9FF0837D1
:10174000BD4680BDAFF30080AFF30080AFF30080F3
:1017500080B500AF03F0E4FF80BD00BFAFF30080B1
:1017600080B582B000AF7860786803F0E1FF083799
:10177000BD4680BDAFF30080AFF30080AFF30080C3
:1017800080B500AFFFF7C4FF0346184680BD00BF19
:1017900080B500AFFFF7F4FF0346184680BD00BFD9
:1017A00080B400AF084B094ADA61074B074A1A6256
:1017B000054B4FF0FF325A62034B00229A62BD463E
:1017C0005DF8047B704700BF100800202C08002043
:1017D00080B588B000AFF860B9607A603B60FFF711
:1017E0001FFFFB68002B05D07B68002B02D0BB6875
:1017F000002B02D13948FFF77BFDFB683A681A617C
:10180000FB687A68DA60FFF7C3FF7861BB68012B79
:1018100001D80223BB60324BDA69324B9A4219D1AC
:101820002F4B7A699A622E4BFA68DA612C4BFA6870
:101830001A62FB682B4A1A60FB682A4A5A60FB68E6
:10184000BA689A60264B9A6ABB6813441846FFF739
:101850006FFF40E07A69BB681A44214B9B6AD31A38
:10186000BB611F4BDB699A68BB699A4206D91C4B66
:101870009A6ABB6913441846FFF772FF184BDB697D
:10188000FB6107E0FB699B68BA69D31ABB61FB691E
:101890001B68FB61FB699A68BB699A42F2D3FB68DB
:1018A000FA691A60FB681B685A68FB685A60FB6833
:1018B0005B68FA681A60FB69FA685A60FB68BA6983
:1018C0009A60FB699A68BB69D21AFB699A60044BFB
:1018D0004FF0FF325A622037BD4680BDA08201081A
:1018E000100800202C080020AFF30080AFF3008028
:1018F00080B584B000AF7860FFF792FE7B68002B64
:1019000002D13648FFF7F4FC7B68DB68002B02D17C
:101910003248FFF7EDFC324BDA697B689A421CD003
:101920007B685B687A6812681A607B681B687A68F3
:1019300052685A607B680022DA607B681A68294B1B
:101940009A4209D07B681B687A68126891687A6845
:1019500092680A449A603EE03DE07B681A68204B3A
:10196000DA611F4BDB691F4A5A607B680022DA602C
:101970001B4BDA691B4B9A4202D1FFF7E9FE2AE0C2
:10198000174BDB69164AD26991687A6892680A44F3
:101990009A60FFF7FDFE0246114B9B6AD31ABB60AB
:1019A0000F4BDB699A68BB689A4200D813E00C4B76
:1019B000DB699A68BB68D31AFB60FB68012B01D80E
:1019C0000223FB60064B9A6ABB681A44FB68134407
:1019D0001846FFF7C5FE1037BD4680BDB08201082E
:1019E000100800202C080020AFF30080AFF3008027
:1019F00080B483B000AF20237B607B6883F31188C1
:101A00000C37BD465DF8047B704700BFAFF3008024
:101A100080B483B000AF00237B607B6883F31188C0
:101A20000C37BD465DF8047B704700BFAFF3008004
:101A300080B500AFFFF7DCFF80BD00BFAFF30080D3
:101A400080B500AFFFF7E4FF80BD00BFAFF30080BB
:101A500080B483B000AF78607B687A681A607B6876
:101A60007A685A600C37BD465DF8047B704700BF4A
:101A700080B485B000AF78607B681B68FB60FB6852
:101A80001A687B681A607B681B687A685A60FB6812
:101A900018461437BD465DF8047B7047AFF30080ED
:101AA00080B483B000AF78607B685B687A68126846
:101AB0001A607B681B687A6852685A607B681846AF
:101AC0000C37BD465DF8047B704700BFAFF3008064
:101AD00080B500AFFFF7A4FD064B1B689A68054B65
:101AE0009B699B689A4294BF00230123DBB218468E
:101AF00080BD00BF10080020AFF30080AFF300806E
:101B000080B500AFFFF794FF00F0CAFEFFF718FDA5
:101B100080BD00BFAFF30080AFF30080AFF3008063
:101B200080B500AFFFF724FD00F0C2FEFFF788FF8D
:101B300080BD00BFAFF30080AFF30080AFF3008043
:101B400080B582B000AF7860FFF76AFD7B68DB6824
:101B5000002B0CBF00230123DBB218460837BD461B
:101B600080BD00BFAFF30080AFF30080AFF3008013
:101B700080B582B000AF7860FFF752FD7B689B684C
:101B80005A1C7B689A600837BD4680BDAFF3008061
:101B900080B500AF0648FFF75BFF054B00229A6057
:101BA000034B034A1A61024B014A5A6180BD00BFD0
:101BB00010080020AFF30080AFF30080AFF3008087
:101BC00080B584B000AF7860FFF72AFD7B68002BFA
:101BD00002D11948FFF78CFB7B6893F82030002B6B
:101BE00004D07B6893F820300F2B02D11248FFF706
:101BF0007FFB7B68002283F82020104BFB60FB6892
:101C00001B68FB60FB689A687B689B689A42F6D207
:101C10007B68FA681A60FB685A687B685A607B6860
:101C20005B687A681A60FB687A685A607B68184655
:101C30001037BD4680BD00BFC082010810080020DB
:101C400090B585B000AF0346FB71FFF701FD194B5E
:101C50009B69FB60FB68FA7983F820201548FFF741
:101C600007FF0246134B9A61124B9B69012283F8CE
:101C70002020F868FFF714FD0E4B9B691846F968A1
:101C800000F0DEFDEFF309831C462346BB60BB6812
:101C9000A3F12402FB68DB699A4202D20648FFF7EF
:101CA00027FB044B9B691846F968FEF7F1FA1437D5
:101CB000BD4690BD10080020E0620108AFF300802F
:101CC00080B584B000AF78607B68FB60FFF718FFD9
:101CD000FB6893F82030072B23D801A252F823F099
:101CE000011D0008231D0008231D0008071D000812
:101CF0001B1D0008111D0008231D00081B1D0008E6
:101D0000FFF70EFF17E0FB685B6A00221A6009E02C
:101D1000FB685B6A1846FFF72BFFF868FFF7C0FE09
:101D200000E000BFFB684FF0FF325A62F868FFF72F
:101D300047FFFFF7F5FE1037BD4680BDAFF30080CB
:101D400080B588B000AF03463960FB71FFF780FCB7
:101D50003B68B3F1FF3F1BD0134B9B6907F10C02AB
:101D600010463968114AFFF733FDFB791846FFF733
:101D700067FF07F10C031846FFF7E2FE0346002B4E
:101D800005D007F10C031846FFF7B2FD04E003E0AD
:101D9000FB791846FFF754FF034B9B695B6A1846B3
:101DA0002037BD4680BD00BF10080020C11C0008C0
:101DB00090B585B000AF78603960FFF749FC7B686B
:101DC0003A685A627B689A68194B9B699B689A4289
:101DD00003D87868FFF7F4FE26E0154B9B69184698
:101DE000FFF7EEFEF860124B7A689A617B68012279
:101DF00083F82020F868FFF753FC7868F96800F052
:101E00001FFDEFF309831C462346BB60BB68A3F1AB
:101E10002402FB68DB699A4202D20648FFF768FA9F
:101E20007868F968FEF734FA1437BD4690BD00BFF4
:101E300010080020E0620108AFF30080AFF30080DB
:101E400080B500AFFFF704FCFFF742FE0346002B0E
:101E500001D000F025F880BDAFF30080AFF3008023
:101E600080B483B000AF0A4B1B689B687B60084B53
:101E70009B699B683B607A683B689A4294BF0023E9
:101E80000123DBB218460C37BD465DF8047B704772
:101E900010080020AFF30080AFF30080AFF30080A4
:101EA00090B585B000AF264B9B69BB602448FFF717
:101EB000DFFD0246224B9A61214B9B69012283F888
:101EC0002020BB68002283F820201D4BFB60FB68AC
:101ED0001B68FB60FB689A68BB689B689A42F6D8EF
:101EE000BB68FA681A60FB685A68BB685A60BB68CE
:101EF0005B68BA681A60FB68BA685A60B868FFF72E
:101F0000CFFB0F4B9B691846B96800F099FCEFF3C3
:101F100009831C4623467B607B68A3F12402BB68CF
:101F2000DB699A4202D20748FFF7E2F9044B9B694A
:101F30001846B968FEF7ACF91437BD4690BD00BF2E
:101F400010080020E0620108AFF30080AFF30080CA
:101F500080B500AFFFF7A4FF80BD00BFAFF30080E6
:101F600080B483B000AF20237B607B6883F311884B
:101F70000C37BD465DF8047B704700BFAFF30080AF
:101F800080B483B000AF00237B607B6883F311884B
:101F90000C37BD465DF8047B704700BFAFF300808F
:101FA00080B483B000AF78607B687A681A600C37C1
:101FB000BD465DF8047B7047AFF30080AFF300804F
:101FC00080B483B000AF78607B681A687B689A42FF
:101FD0000CBF00230123DBB218460C37BD465DF869
:101FE000047B7047AFF30080AFF30080AFF3008055
:101FF00080B483B000AF78607B687A681A607B68D1
:102000007A685A600C37BD465DF8047B704700BFA4
:1020100080B483B000AF78607B681A687B689A42AE
:102020000CBF00230123DBB218460C37BD465DF818
:10203000047B7047AFF30080AFF30080AFF3008004
:1020400080B485B000AF78607B681B68FB60FB687C
:102050001A687B681A60FB6818461437BD465DF83D
:10206000047B7047AFF30080AFF30080AFF30080D4
:1020700080B483B000AF786039607B683A681A60DA
:102080003B685A687B685A607B685B687A681A604C
:102090003B687A685A600C37BD465DF8047B704730
:1020A00080B485B000AF78607B681B68FB60FB681C
:1020B0001A687B681A607B681B687A685A60FB68DC
:1020C00018461437BD465DF8047B7047AFF30080B7
:1020D00080B500AFFFF744FF00F0D2FBFFF700FA36
:1020E00080BD00BFAFF30080AFF30080AFF300808E
:1020F00080B500AFFFF70CFA00F0CAFB094B1A6875
:10210000084B9A420AD0074B9B699A68054B1B689B
:102110009B689A4202D20448FFF7EAF8FFF730FFC3
:1021200080BD00BF10080020E0820108AFF30080EE
:1021300080B400AF034B9B691846BD465DF8047B35
:10214000704700BF10080020AFF30080AFF300809D
:1021500080B582B000AF78607B68002B02D1054863
:10216000FFF7C6F808207968FFF7EAFD0837BD4693
:1021700080BD00BF10830108AFF30080AFF3008083
:1021800080B584B000AF786039607868FFF740FFB1
:10219000034683F00103DBB2002B02D00B48FFF7AC
:1021A000A7F87868FFF77CFFF860FB6893F82030A9
:1021B000042B02D00548FFF79BF8FB683A685A6287
:1021C000F868FFF7FDFC1037BD4680BD608301084D
:1021D00080B582B000AF786039607B683A689A60F9
:1021E0007B68022283F820207B68002283F821206C
:1021F0007B683A681A647B680022DA637B68002295
:102200009A637B68012283F822207B6800229A610E
:102210007B68154A1A61144B5A697B685A617B685E
:102220005B697A681A61104B7A685A617B68283357
:102230001846FFF7B5FE7B682C331846FFF7D8FE2B
:102240007B6803F168027B68DA617B684833184673
:1022500000F06EFA7B684833184600F089FA7B6814
:1022600018460837BD4680BD10080020AFF3008037
:1022700080B485B000AFF860B9601346FB7104E02C
:10228000FB685A1CFA60FA791A70FA68BB689A42BD
:10229000F6D31437BD465DF8047B7047AFF300807A
:1022A00080B586B000AFF860B9607A603B60FB68CB
:1022B0007B61FFF7B5F9FB68002B08D0BB68EF2BFB
:1022C00005D97B687F2B02D83B68002B02D10F48D1
:1022D000FFF70EF8BB68243BFA681A447B69DA60A2
:1022E0007B69DB683A681A607B69DB683A6A5A6026
:1022F0007B69DB68064A1A6278697968FFF768FFCC
:10230000034618461837BD4680BD00BFD08201087D
:10231000A1020008AFF30080AFF30080AFF30080AC
:1023200080B588B002AFF860B9607A603B60FB6846
:102330006833F8681946FF22FFF79AFFFB6803F13C
:102340006802F968BB680B44104619465522FFF72E
:102350008FFFFFF7BDFE3B6A0093F868B9687A68A3
:102360003B68FFF79DFF786178690021FFF720FD4A
:10237000FFF7BEFE7B6918461837BD4680BD00BF1B
:1023800080B584B000AF78607B687F2B02D9144899
:10239000FEF7AEFFFFF79CFE124B9B691B6CFB60C8
:1023A000104B9B699A680F4B9B691B6C9A4205D036
:1023B0000C4B9B699A687B689A4203D2094B9B69D4
:1023C0007A689A60074B9B697A681A64FFF738FD50
:1023D000FFF78EFEFB6818461037BD4680BD00BF74
:1023E000F082010810080020AFF30080AFF30080F6
:1023F00080B582B000AF7860FFF76AFE7868FFF7BB
:10240000A7FEFFF775FE0837BD4680BDAFF300801D
:1024100080B582B000AF7860FFF75AFE786800F0B0
:1024200007F80837BD4680BDAFF30080AFF30080EA
:1024300080B584B000AF7860184B9B69FB60FB6887
:102440007A685A6208E0FB6828331846FFF7F8FDFF
:1024500003461846FFF7B4FBFB6828331846FFF71E
:10246000AFFD0346002BEED1FB6893F8213003F05B
:102470000303002B09D1FB685B69FA6812691A61D2
:10248000FB681B69FA6852695A610F20FFF7D8FB95
:102490000348FEF72DFF1037BD4680BD1008002011
:1024A00020830108AFF30080AFF30080AFF300801A
:1024B00080B584B000AF7860FFF73AFEF8607B68C3
:1024C0001B68002B02D00A48FEF712FF7B68FA68EF
:1024D0001A60FB687A685A620320FFF7B1FBFFF7C6
:1024E00027FE03465B6A18461037BD4680BD00BF15
:1024F00030830108AFF30080AFF30080AFF30080BA
:1025000080B584B000AF786039607B681B68002BB1
:1025100013D07B681B68FB60FB6893F82030032BAB
:1025200002D00748FEF7E4FE7B6800221A60FB68D1
:102530003A685A62F868FFF743FB1037BD4680BD22
:1025400040830108AFF30080AFF30080AFF3008059
:1025500080B584B000AF786039607B681B68002B61
:1025600011D07B681B68FB60FB6893F82030032B5D
:1025700002D00648FEF7BCFE7B6800221A60F868AD
:102580003968FFF715FC1037BD4680BD5083010840
:1025900080B582B000AF78603960FFF799FD786848
:1025A0003968FFF7D5FFFFF7A3FD0837BD4680BDAB
:1025B00080B582B000AF786039603B68002B02D1F3
:1025C0004FF0FF330AE0074B9B6918467968FFF725
:1025D0004FFD04203968FFF7B3FB03461846083760
:1025E000BD4680BD10080020AFF30080AFF300802F
:1025F00080B582B000AF786039607868FFF708FD79
:102600000346002B03D078683968FFF7B9FD083717
:10261000BD4680BDAFF30080AFF30080AFF3008014
:1026200080B582B000AF7860396003E078683968BF
:10263000FFF7A6FD7868FFF7EBFC0346002BF5D10A
:102640000837BD4680BD00BFAFF30080AFF3008008
:1026500080B400AF034B5B681846BD465DF8047B51
:10266000704700BF001000E0AFF30080AFF30080C0
:1026700080B485B000AFF860B9607A60FB68DB6851
:102680005A1CFB68DA60FB689B68BA68D21A7B68E0
:10269000D21AFB689A60FB68D3E90401FB689B6867
:1026A0001A464FF00003121843EB0103F968C1E921
:1026B0000423FB689A68FB685B689A4204D9FB684C
:1026C0009A68FB685A6009E0FB689A68FB681B68B7
:1026D0009A4203D2FB689A68FB681A601437BD46B9
:1026E0005DF8047B704700BFAFF30080AFF300805C
:1026F00080B586B000AF0B4B0022C3F8A8243B4640
:10270000184600F015F83B46184600F031F83B46F5
:10271000184600F03DF8BA68024BC3F8A8241837F1
:10272000BD4680BD10080020AFF30080AFF30080ED
:1027300080B483B000AF78607B684FF0FF321A60DE
:102740007B6800225A607B6800229A607B680022C6
:10275000DA6079684FF000024FF00003C1E904230A
:102760000C37BD465DF8047B704700BFAFF30080B7
:1027700080B582B000AF7860FFF76AFF02467B68E1
:102780009A600837BD4680BDAFF30080AFF300808C
:1027900080B582B000AF7860FFF75AFF0246054B64
:1027A000D3F8A834786811461A46FFF761FF083756
:1027B000BD4680BD10080020AFF30080AFF300805D
:1027C00080B582B000AF78603960FFF741FF024604
:1027D0003B689A603B689B68786819460022FFF75F
:1027E00047FF0837BD4680BDAFF30080AFF30080E0
:1027F00080B500AF074B0022C3F8B024054B002280
:10280000C3F8B4240448FFF793FF0448FFF790FF90
:1028100080BD00BF10080020C80C0020E00C002084
:1028200080B400AF054BD3F8B0345A1C034BC3F847
:10283000B024BD465DF8047B704700BF100800203F
:1028400080B582B000AF78603960094BD3F8B434FA
:102850005A1C074BC3F8B4243B6803F148027B6859
:10286000483310461946FFF7ABFF0837BD4680BD19
:1028700010080020AFF30080AFF30080AFF30080BA
:1028800080B500AF0148FFF773FF80BDC80C002082
:1028900080B500AF0148FFF77BFF80BDC80C00206A
:1028A00080B500AF0148FFF763FF80BDE00C00205A
:1028B00080B500AF0148FFF76BFF80BDE00C002042
:1028C00080B483B000AF20237B607B6883F31188E2
:1028D0000C37BD465DF8047B704700BFAFF3008046
:1028E00080B483B000AF00237B607B6883F31188E2
:1028F0000C37BD465DF8047B704700BFAFF3008026
:1029000080B483B000AF78607B687A681A607B68B7
:102910007A685A600C37BD465DF8047B704700BF8B
:1029200080B483B000AF78607B681A687B689A4295
:1029300014BF00230123DBB218460C37BD465DF8F7
:10294000047B7047AFF30080AFF30080AFF30080EB
:1029500080B483B000AF78607B681A687B689A4265
:102960000CBF00230123DBB218460C37BD465DF8CF
:10297000047B7047AFF30080AFF30080AFF30080BB
:1029800080B483B000AF786039607B683A681A60C1
:102990003B685A687B685A607B685B687A681A6033
:1029A0003B687A685A600C37BD465DF8047B704717
:1029B00080B485B000AF78607B681B68FB60FB6803
:1029C0001A687B681A607B681B687A685A60FB68C3
:1029D00018461437BD465DF8047B7047AFF300809E
:1029E00080B485B000AF78607B685B68FB60FB6893
:1029F0005A687B685A607B685B687A681A60FB6813
:102A000018461437BD465DF8047B7047AFF300806D
:102A100080B500AFFFF754FFFFF732FFFEF760FD10
:102A200080BD00BFAFF30080AFF30080AFF3008044
:102A300080B500AFFEF76CFDFFF72AFF094B1A685F
:102A4000084B9A420AD0074B9B699A68054B1B6852
:102A50009B689A4202D20448FEF74AFCFFF740FF07
:102A600080BD00BF10080020B0830108AFF30080D4
:102A700080B582B000AF786039607B68002B02D0EF
:102A80003B68002B02DA0648FEF732FC7B681846EA
:102A9000FFF736FF7B683A689A600837BD4680BD0D
:102AA000A0830108AFF30080AFF30080AFF3008094
:102AB00080B584B000AF78603960FEF7B1FD7B6807
:102AC000002B02D03B68002B02DA1F48FEF710FCF7
:102AD0007B689B68002B09DB7B681846FFF720FFAB
:102AE000034683F00103DBB2002B10D07B689B68A8
:102AF000002B09DA7B681846FFF72AFF034683F0AC
:102B00000103DBB2002B02D00F48FEF7F1FB7B681C
:102B10009B68FB607B683A689A600BE07B681846AC
:102B2000FFF75EFF03461846FFF74AF803466FF0CB
:102B300001025A62FB680133FB60FB68002BEDDD8C
:102B40001037BD4680BD00BFC0830108AFF30080D1
:102B500080B582B000AF78603960FEF779FD7B68A0
:102B6000002B02D12548FEF7C3FB7B689B68002B36
:102B700009DB7B681846FFF7D3FE034683F00103A9
:102B8000DBB2002B10D07B689B68002B09DA7B68D6
:102B90001846FFF7DDFE034683F00103DBB2002B8E
:102BA00002D01648FEF7A4FB7B689B685A1E7B6820
:102BB0009A607B689B68002B1BDA3B68002B07D16F
:102BC0007B689B685A1C7B689A604FF0FF3311E06A
:102BD0000B4B9B697A685A62094B9A697B6810466D
:102BE0001946FFF7CDFE05203968FFF7A9F803461F
:102BF00000E0002318460837BD4680BDD083010899
:102C000010080020AFF30080AFF30080AFF3008026
:102C100080B582B000AF78607B68002B02D11D4880
:102C2000FEF766FB7B689B68002B09DB7B68184618
:102C3000FFF776FE034683F00103DBB2002B10D0D2
:102C40007B689B68002B09DA7B681846FFF780FEDB
:102C5000034683F00103DBB2002B02D00D48FEF7E0
:102C600047FBFFF7D5FE7B689B685A1C7B689A6020
:102C70007B689B68002B08DC7B681846FFF798FE92
:102C8000034618460021FFF793F8FFF7D1FE0837F7
:102C9000BD4680BDF0830108AFF30080AFF3008034
:102CA00080B584B000AF7860FEF7BAFC7B68002B7B
:102CB00002D11C48FEF71CFB7B689B68002B09DBDC
:102CC0007B681846FFF72CFE034683F00103DBB256
:102CD000002B10D07B689B68002B09DA7B681846B4
:102CE000FFF736FE034683F00103DBB2002B02D070
:102CF0000C48FEF7FDFA7B689B685A1C7B689A605B
:102D00007B689B68002B0ADC7B681846FFF750FE47
:102D1000F860FB6800225A62F868FEF751FF10372E
:102D2000BD4680BD00840108AFF30080AFF3008092
:102D300080B483B000AF20237B607B6883F311886D
:102D40000C37BD465DF8047B704700BFAFF30080D1
:102D500080B483B000AF00237B607B6883F311886D
:102D60000C37BD465DF8047B704700BFAFF30080B1
:102D700080B483B000AF78607B687A681A607B6843
:102D80007A685A600C37BD465DF8047B704700BF17
:102D900080B483B000AF78607B681A687B689A4221
:102DA0000CBF00230123DBB218460C37BD465DF88B
:102DB000047B7047AFF30080AFF30080AFF3008077
:102DC00080B485B000AF786039603B68FB60FB6819
:102DD0001B68FB60FA683B689A4205D0FB689A68FA
:102DE0007B689B689A42F2D27B68FA681A60FB683B
:102DF0005A687B685A607B685B687A681A60FB680F
:102E00007A685A601437BD465DF8047B704700BF8E
:102E100080B485B000AF78607B681B68FB60FB689E
:102E20001A687B681A607B681B687A685A60FB685E
:102E300018461437BD465DF8047B7047AFF3008039
:102E400080B483B000AF78607B685B687A68126892
:102E50001A607B681B687A6852685A607B681846FB
:102E60000C37BD465DF8047B704700BFAFF30080B0
:102E700080B500AFFFF75CFFFFF702FDFEF730FB08
:102E800080BD00BFAFF30080AFF30080AFF30080E0
:102E900080B500AFFEF73CFBFFF7FAFC094B1A6860
:102EA000084B9A420AD0074B9B699A68054B1B68EE
:102EB0009B689A4202D20448FEF71AFAFFF748FFCD
:102EC00080BD00BF1008002020840108AFF30080FF
:102ED00080B582B000AF7860FEF7BAFB7B68184619
:102EE000FFF756FF034618460837BD4680BD00BFB2
:102EF00080B582B000AF78607B68002B02D10648B5
:102F0000FEF7F6F97B681846FFF732FF7B68002270
:102F10009A600837BD4680BD10840108AFF3008079
:102F200080B582B000AF7860FFF7A2FF786800F04C
:102F300007F8FFF7ADFF0837BD4680BDAFF300804F
:102F400080B584B000AF78603B4B9B69BB60FEF7F7
:102F50007FFB7B68002B02D13848FEF7C9F97B68FC
:102F60009B68002B5BD07B689B68FB6034E0BB6890
:102F70009A68FB689A60FB6893F82030062B04D0AF
:102F8000072B11D0002B1AD025E0F868FFF758FF67
:102F90000246FB685B6A10461946FFF711FFFB68A3
:102FA0005B6A9B68FB6017E0F868FFF749FF024621
:102FB000FB685B6A10461946FFF702FF0BE0FB68EF
:102FC000012283F82020F868FFF73AFF03461846ED
:102FD000FEF7F6FD00BF05E0FB689A68BB689B68DA
:102FE0009A42C4D37B68B8681946FFF7E9FEBB680C
:102FF0007A685A620620FEF723FE7B689A68BB68EF
:103000009A4202D00D48FEF773F9BB68DA6B7B6811
:103010009A4203D00948FEF76BF90AE009E07B68A1
:10302000BA689A60BB68DA6B7B68DA60BB687A68FA
:10303000DA631037BD4680BD1008002030840108D7
:1030400080B586B000AF7860344B9B69FB607B68CD
:10305000002B02D13248FEF74BF9FFF709FFFB685E
:10306000DB6B002B02D12E48FEF742F9FB68DB6BCD
:103070009A68FB689A4202D02948FEF739F9FB6842
:10308000DA6B7B689A4202D02548FEF731F97B68FB
:10309000DA68FB68DA637868FFF71AFF0346002BEB
:1030A00034D0FB681B6C3B61FB68DB6B7B6112E01F
:1030B0007869FFF70DFF0346002B09D07B691B6879
:1030C0009A683B699A4203D97B691B689B683B619C
:1030D0007B69DB687B617B69002BE9D1FB683A691E
:1030E0009A607B681846FFF793FEB8607B68BA6801
:1030F0009A60BB68DA6B7B68DA60BB687A68DA630F
:10310000B868FEF75DFDFEF79BFE02E07B680022DB
:103110009A60FFF7BDFE1837BD4680BD100800203D
:1031200040840108AFF30080AFF30080AFF300806C
:1031300080B483B000AF20237B607B6883F3118869
:103140000C37BD465DF8047B704700BFAFF30080CD
:1031500080B483B000AF00237B607B6883F3118869
:103160000C37BD465DF8047B704700BFAFF30080AD
:1031700080B500AFFFF7DCFFFFF782FBFEF7B0F989
:1031800080BD00BFAFF30080AFF30080AFF30080DD
:1031900080B500AFFEF7BCF9FFF77AFB094B1A6860
:1031A000084B9A420AD0074B9B699A68054B1B68EB
:1031B0009B689A4202D20448FEF79AF8FFF7C8FFCC
:1031C00080BD00BF1008002070840108AFF30080AC
:1031D00080B584B000AFF860B9607A603B60FB688E
:1031E000002B02D0BB68002B02D10F48FEF780F8FD
:1031F000FFF7BEFFFB681A68BB681A60FB68BA6815
:103200001A600A4B9A69BB685A60BB687A689A6010
:10321000BB680022DA60BB683A681A61FFF7B8FF42
:103220001037BD4680BD00BF508401081008002043
:1032300080B582B000AF7860FFF79AFF094B9B69B9
:10324000084A9269916B7A680A439A63054B9B69B5
:103250009B6B7B60FFF79CFF7B6818460837BD4679
:1032600080BD00BF10080020AFF30080AFF30080E6
:1032700080B584B000AF78603960FEF7D1F97B6823
:10328000002B02D11448FEF733F87B681B68FB6003
:103290001AE0FB68DA683B681A43FB68DA603B684F
:1032A000002B06D0FB68DA68FB681B691340002B13
:1032B00007D0FB685A68FB689B681046194600F007
:1032C0000FF8FB681B68FB60FA687B689A42E0D1E4
:1032D0001037BD4680BD00BF80840108AFF3008079
:1032E00080B582B000AF78603960FEF799F97B68ED
:1032F000002B02D11548FDF7FBFF7B689A6B3B68FA
:103300001A437B689A637B6893F820300A2B06D1B6
:103310007B689A6B7B685B6A1340002B0DD17B68DE
:1033200093F820300B2B0ED17B689A6B7B685B6A1D
:103330001A407B685B6A9A4205D17B6800225A6218
:103340007868FEF73DFC0837BD4680BDA0840108C3
:1033500080B584B000AF7860124B9B69BB60FFF70B
:1033600007FFBB689A6B7B681340FB60FB68002B10
:103370000AD1BB687A685A620A20FEF761FCBB6812
:103380009A6B7B681340FB60BB689A6BFB68DB43FE
:103390001A40BB689A63FFF7FBFEFB6818461037BC
:1033A000BD4680BD10080020AFF30080AFF3008061
:1033B00080B483B000AF20237B607B6883F31188E7
:1033C0000C37BD465DF8047B704700BFAFF300804B
:1033D00080B483B000AF00237B607B6883F31188E7
:1033E0000C37BD465DF8047B704700BFAFF300802B
:1033F00080B500AFFFF7DCFFFFF742FAFEF770F889
:1034000080BD00BFAFF30080AFF30080AFF300805A
:1034100080B500AFFEF77CF8FFF73AFA094B1A685F
:10342000084B9A420AD0074B9B699A68054B1B6868
:103430009B689A4202D20448FDF75AFFFFF7C8FF83
:1034400080BD00BF10080020C0840108AFF30080D9
:1034500080B584B000AFF860B9607A60FB68002B7B
:1034600005D0BB68002B02D07B68002B02DC104823
:10347000FDF73EFFFB68BA681A60FB68BA68DA605D
:10348000FB68BA689A607B689B00BA681A44FB685C
:103490005A60FB681C3318467968FFF7E9FAFB6845
:1034A000103318460021FFF7E3FA1037BD4680BD00
:1034B000B0840108AFF30080AFF30080AFF3008069
:1034C00080B582B000AF7860FFF792FF786800F0B7
:1034D00007F8FEF7B5FCFFF79BFF0837BD4680BD38
:1034E00080B582B000AF7860FEF79AF87B68002B59
:1034F00002D11148FDF7FCFE7B681A687B689A6070
:103500007B681A687B68DA607B6803F11C027B6861
:103510005B6819467B681B68CB1A9B1010461946DE
:10352000FFF7C6FA7B68103318460021FFF7C0FA90
:103530000837BD4680BD00BFD0840108AFF30080CE
:1035400080B586B000AFF860B9607A60FFF750FFD1
:10355000F868B9687A6800F00BF87861FFF758FFEF
:103560007B6918461837BD4680BD00BFAFF30080A9
:1035700080B586B000AFF860B9607A60FEF768F891
:10358000FB68002B02D11548FDF7B2FEFB681C3327
:1035900018467968FFF7DCFA78617B69002B17D150
:1035A000FB689B68191DFA689160BA681A60FB682D
:1035B0009A68FB685B689A4203D3FB681A68FB68E9
:1035C0009A60FB6810331846FFF76AFBFEF738FC79
:1035D0007B6918461837BD4680BD00BFE0840108EE
:1035E00080B586B000AFF860B9607A60FFF700FF81
:1035F000F868B9687A6800F00BF87861FFF708FF9F
:103600007B6918461837BD4680BD00BFAFF3008008
:1036100080B586B000AFF860B9607A60FEF718F840
:10362000FB68002B02D0BB68002B02D11548FDF7C8
:103630005FFEFB68103318467968FFF789FA7861F6
:103640007B69002B18D1FB68DB68191DFA68D16013
:103650001A68BB681A60FB68DA68FB685B689A42A4
:1036600003D3FB681A68FB68DA60FB681C331846F2
:10367000FFF716FBFEF7E4FB7B6918461837BD46DB
:1036800080BD00BFF0840108AFF30080AFF300807D
:1036900080B483B000AF20237B607B6883F3118804
:1036A0000C37BD465DF8047B704700BFAFF3008068
:1036B00080B483B000AF00237B607B6883F3118804
:1036C0000C37BD465DF8047B704700BFAFF3008048
:1036D00080B483B000AF78607B687A681A607B68DA
:1036E0007A685A600C37BD465DF8047B704700BFAE
:1036F00080B500AFFFF7CCFFFFF7C2F8FDF7F0FE93
:1037000080BD00BFAFF30080AFF30080AFF3008057
:1037100080B500AFFDF7FCFEFFF7BAF8094B1A6859
:10372000084B9A420AD0074B9B699A68054B1B6865
:103730009B689A4202D20448FDF7DAFDFFF7B8FF12
:1037400080BD00BF1008002000850108AFF3008095
:1037500080B582B000AF78607868FFF7B9FF0837AE
:10376000BD4680BDAFF30080AFF30080AFF30080B3
:1037700080B582B000AF7860FDF752FF7B689B6830
:10378000002B14BF00230123DBB218460837BD46C7
:1037900080BD00BFAFF30080AFF30080AFF30080C7
:1037A00080B582B000AF7860FDF73AFF7B685A6958
:1037B0007B689B699A4205D17B689B68002B01D08E
:1037C000012300E0002303F00103DBB218460837B1
:1037D000BD4680BDAFF30080AFF30080AFF3008043
:1037E00080B582B000AF7860FDF71AFF7B685A6938
:1037F0007B689B699A4205D17B689B68002B01D04E
:10380000012300E0002303F00103DBB21846083770
:10381000BD4680BDAFF30080AFF30080AFF3008002
:1038200080B582B000AF7860FDF7FAFE7B689B68D8
:10383000002B14BF00230123DBB218460837BD4616
:1038400080BD00BFAFF30080AFF30080AFF3008016
:1038500080B584B000AFF860B9607A603B60FB6807
:103860001846FFF775FFFB6800229A60FB68BA688C
:10387000DA60FB68BA689A61FB68BA685A61BA682C
:103880007B681A44FB681A61FB683A68DA61FB6876
:10389000BA691A621037BD4680BD00BFAFF3008021
:1038A00080B582B000AF78600B46FB70FDF7B8FEC4
:1038B0007868FFF775FF0346002B02D06FF0030313
:1038C0001BE07B689B685A1C7B689A607B685B691D
:1038D000591C7A685161FA781A707B685A697B685A
:1038E0001B699A4203D37B68DA687B685A617B68FC
:1038F00018460021FEF77CFE002318460837BD4617
:1039000080BD00BFAFF30080AFF30080AFF3008055
:1039100080B584B000AF78603960FFF7E9FE7B685E
:10392000DB69002B04D07B68DB69786898470DE081
:103930000CE07B6818463968FEF73AFEF860FB68D1
:10394000002B03DAFFF7E4FEFB681EE07868FFF760
:103950000FFF0346002BECD17B689B685A1E7B68E7
:103960009A607B689B69591C7A6891611B78FB722D
:103970007B689A697B681B699A4203D37B68DA6823
:103980007B689A61FFF7C4FEFB7A18461037BD4684
:1039900080BD00BFAFF30080AFF30080AFF30080C5
:1039A00080B586B000AFF860B9607A603B60FB68B4
:1039B000DB693B6100237B617B68002B02D12648D9
:1039C000FDF796FCFFF794FE3B69002B03D03B69A3
:1039D000F86898470CE00BE0FB6818463968FEF77A
:1039E000E7FD0346002B03D0FFF792FE7B692EE034
:1039F000F868FFF7BDFE0346002BEDD1FB689B681E
:103A00005A1EFB689A60BB685A1CBA60FA689269D1
:103A1000501CF968886112781A70FB689A69FB6813
:103A20001B699A4203D3FB68DA68FB689A61FFF767
:103A30006FFE7B6901337B617B68013B7B607B6848
:103A4000002B01D17B6902E0FFF752FEBCE718466C
:103A50001837BD4680BD00BF10850108AFF3008058
:103A600080B584B000AFF860B9607A603B60FB68F5
:103A70001846FFF76DFEFB687A689A60FB68BA68C3
:103A8000DA60FB68BA689A61FB68BA685A61BA681A
:103A90007B681A44FB681A61FB683A68DA61FB6864
:103AA000BA691A621037BD4680BD00BFAFF300800F
:103AB00080B586B000AFF8600B467A60FB72FFF706
:103AC00017FE0CE0FB6818467968FEF771FD786117
:103AD0007B69002B03DAFFF71BFE7B6926E0F868A1
:103AE000FFF79EFE0346002BECD1FB689B685A1E35
:103AF000FB689A60FB685B69591CFA685161FA7A45
:103B00001A70FB685A69FB681B699A4203D3FB6809
:103B1000DA68FB685A61FB68DB69002B03D0FB683D
:103B2000DB69F8689847FFF7F3FD0023184618375C
:103B3000BD4680BDAFF30080AFF30080AFF30080DF
:103B400080B584B000AF7860FDF76AFD7868FFF754
:103B500047FE0346002B02D06FF002031BE07B6898
:103B60009B685A1C7B689A607B689B69591C7A68C1
:103B700091611B78FB737B689A697B681B699A4229
:103B800003D37B68DA687B689A617B6818460021FA
:103B9000FEF72EFDFB7B18461037BD4680BD00BFEB
:103BA00080B586B000AFF860B9607A603B60FB68B2
:103BB000DB693B6100237B617B68002B02D12648D7
:103BC000FDF796FBFFF794FD0BE0FB68184639689C
:103BD000FEF7EEFC0346002B03D0FFF799FD7B694F
:103BE00035E0F868FFF71CFE0346002BEDD1FB68BB
:103BF0009B685A1EFB689A60FB685B69591CFA68EF
:103C00005161BA68511CB96012781A70FB685A6920
:103C1000FB681B699A4203D3FB68DA68FB685A6148
:103C20003B69002B02D03B69F8689847FFF770FDAD
:103C30007B6901337B617B68013B7B607B68002B88
:103C400001D17B6903E0FFF753FD00BFC9E71846C8
:103C50001837BD4680BD00BF20850108AFF3008046
:103C600080B483B000AF20237B607B6883F311882E
:103C70000C37BD465DF8047B704700BFAFF3008092
:103C800080B483B000AF00237B607B6883F311882E
:103C90000C37BD465DF8047B704700BFAFF3008072
:103CA00080B500AFFFF7DCFFFEF7EAFDFDF718FC7B
:103CB00080BD00BFAFF30080AFF30080AFF30080A2
:103CC00080B500AFFDF724FCFEF7E2FD094B1A6852
:103CD000084B9A420AD0074B9B699A68054B1B68B0
:103CE0009B689A4202D20448FDF702FBFFF7C8FF27
:103CF00080BD00BF1008002040850108AFF30080A0
:103D000080B400AF084B073323F007031A46074B74
:103D10001A60074B23F007031A46064B1A60BD468C
:103D20005DF8047B704700BFF0BE0020F80D002056
:103D300000000220FC0D0020AFF30080AFF30080F4
:103D400080B584B000AF7860FFF7AAFF786800F014
:103D50000FF8F860FFF7B4FFFB6818461037BD4650
:103D600080BD00BFAFF30080AFF30080AFF30080F1
:103D700080B584B000AF7860FDF752FC7B680733F4
:103D800023F007037B600D4B1B681A460C4B1B6826
:103D9000D31A1A467B689A4201D2002309E0084BE5
:103DA0001B68FB60064B1A687B681A44044B1A6058
:103DB000FB6818461037BD4680BD00BFFC0D0020D3
:103DC000F80D0020AFF30080AFF30080AFF3008068
:103DD00080B500AF064B074A1A60054B00229A6077
:103DE000034B0022DA600448FFF782F880BD00BF71
:103DF000000E0020413D0008100E0020AFF30080AF
:103E000080B586B000AF786039607B68002B01D147
:103E1000364B7B603B68073323F007033B607B68CE
:103E200008337B617B6810331846FFF779F836E07A
:103E30007B691B683B613B695A683B689A422CD39B
:103E40003B695A683B6808339A4204D23B691A6856
:103E50007B691A6016E03B6808333A691344FB60DB
:103E60003B691A68FB681A603B695A683B68D31A59
:103E7000A3F10802FB685A607B69FA681A603B6923
:103E80003A685A603B697A681A607B681033184652
:103E9000FFF7D6F83B69083324E03B697B617B6917
:103EA0001B68002BC4D17B6810331846FFF7C8F895
:103EB0007B681B68002B14D07B681B683A6808324B
:103EC0001046984738613B69002B0AD03B697A68F5
:103ED0001A603B693A685A603B6908333B613B6949
:103EE00000E0002318461837BD4680BD000E0020B4
:103EF00080B586B000AF78607B68002B02D13B486C
:103F0000FDF7F6F97B68083B3B613B691B68FB608A
:103F1000FB6808337B61FB6810331846FFF700F835
:103F20003A697B699A420AD37B695B6808337A698C
:103F30001A443B699A4202D92C48FDF7D9F9FB682B
:103F400003F108027B699A4203D03A697B699A427D
:103F50003ED97B691B68002B04D07B691A683B69DA
:103F60009A4235D97B691A683B691A607B693A695C
:103F70001A603B695B6808333A691A443B691B68FD
:103F80009A420ED13B695A683B691B685B681344CF
:103F900003F108023B695A603B691B681A683B6978
:103FA0001A607B695B6808337A691A443B699A42F4
:103FB0000DD17B695A683B695B68134403F10802C1
:103FC0007B695A603B691A687B691A6004E003E008
:103FD0007B691B687B61A3E7FB6810331846FFF71A
:103FE0002FF800BF1837BD4680BD00BF50850108BF
:103FF00080B483B000AF20237B607B6883F311889B
:104000000C37BD465DF8047B704700BFAFF30080FE
:1040100080B483B000AF00237B607B6883F311889A
:104020000C37BD465DF8047B704700BFAFF30080DE
:1040300080B500AFFFF7DCFF80BD00BFAFF30080AD
:1040400080B500AFFFF7E4FF80BD00BFAFF3008095
:1040500090B583B000AFEFF309831C4623467B6025
:104060007B6820337B607B683B603B6883F3098817
:10407000FFF7E6FF0C37BD4690BD00BFAFF30080F1
:1040800090B583B000AFFFF7D3FF144B5B6803F428
:104090000063002B1DD0EFF309831C4623467B6091
:1040A0007B68203B7B607B684FF08072DA617B68C5
:1040B0003B603B6883F30988FDF7D2FE0346002B83
:1040C00003D07B68064A9A6105E07B68054A9A61DD
:1040D00001E0FFF7B5FF0C37BD4690BD00ED00E0F5
:1040E000B9020008CC020008AFF30080AFF30080F3
:1040F00080B400AFBD465DF8047B7047AFF300802D
:1041000080B500AFFFF7F4FF02F0C2FE094804F0EB
:1041100007FC00F0E5F800F0F3F901F0E9F900F030
:10412000BFFE01F06DFA01F08BFD05F041FD01F0DD
:10413000D7FA80BDE08A0108AFF30080AFF30080BA
:1041400080B588B000AFF860B9607A60BA687B6803
:104150009A4204D3BA687B68D31A1F2B02D91E482F
:10416000FDF7C6F87B685B09FB617B6803F01F0302
:10417000BB61BB685B097B61BB6803F01F03013354
:10418000012202FA03F3013B3B61FA697B699A421F
:1041900014D2FB699B00FA6813441A68BB69DA40C1
:1041A0007B699B00F9680B4419683B691940BB693E
:1041B000C3F1200301FA03F3134309E0FB699B00F9
:1041C000FA6813441A683B691A40BB6922FA03F380
:1041D00018462037BD4680BD60850108AFF30080DA
:1041E00080B586B000AF78607B68002B02D11C4898
:1041F000FDF77EF878687F217E22FFF7A1FF034656
:10420000002B04D0012B1ED000BF002323E07868D0
:1042100049213E22FFF794FF7861786831212F22EF
:10422000FFF78EFF3861786853215022FFF788FF2F
:10423000F8607B695A1C3B6902339A40FB68093B72
:1042400002FA03F307E0786845213022FFF778FF90
:10425000034601339B0218461837BD4680BD00BF98
:1042600080850108AFF30080AFF30080AFF30080DA
:1042700080B582B000AF78607B68002B02D10C481B
:10428000FDF736F87B68D7331B781A067B68D63380
:104290001B781B041A447B68D5331B781B021A4415
:1042A0007B68D4331B78134418460837BD4680BD5D
:1042B000A0850108AFF30080AFF30080AFF300806A
:1042C00080B582B000AF78607868FEF711FE0837DD
:1042D000BD4680BDAFF30080AFF30080AFF3008038
:1042E00080B500AF02F05CFF80BD00BFAFF300807F
:1042F00080B582B000AF78607B6801221A707B685D
:1043000000225A607B6800229A607B680022DA6093
:104310007B6800221A617B6800225A617B6818332F
:104320001846FFF7CDFF0837BD4680BDAFF30080CC
:1043300080B483B000AF20237B607B6883F3118857
:104340000C37BD465DF8047B704700BFAFF30080BB
:1043500080B483B000AF00237B607B6883F3118857
:104360000C37BD465DF8047B704700BFAFF300809B
:1043700080B400AF4FF080435B6A1846BD465DF8DD
:10438000047B7047AFF30080AFF30080AFF3008091
:1043900080B500AFFFF7ECFF0346184680BD00BFB5
:1043A00080B483B000AF78607B687A681A607B68FD
:1043B0007A685A600C37BD465DF8047B704700BFD1
:1043C00080B500AFFFF7B4FFFEF75AFAFDF788F8A3
:1043D00080BD00BFAFF30080AFF30080AFF300807B
:1043E00080B500AFFDF794F8FEF752FA094B1A6852
:1043F000084B9A420AD0074B9B699A68054B1B6889
:104400009B689A4202D20448FCF772FFFFF7A0FFB4
:1044100080BD00BF10080020D0850108AFF30080E8
:1044200080B500AFFFF7B4FF0346184680BD00BF5C
:1044300080B582B000AF78607868FFF7B1FF0837C9
:10444000BD4680BDAFF30080AFF30080AFF30080C6
:1044500080B483B000AF78607B687A681A600C37EC
:10446000BD465DF8047B7047AFF30080AFF300807A
:1044700080B500AFFFF7A4FF80BD00BFAFF30080A1
:1044800080B500AFFFF7ACFF80BD00BFAFF3008089
:1044900080B500AFFFF7C4FF0346184680BD00BFDC
:1044A00080B582B000AF78607868FFF7C1FF083749
:1044B000BD4680BDAFF30080AFF30080AFF3008056
:1044C00080B582B000AF7860396078683968FEF7EF
:1044D0006FF8034618460837BD4680BDAFF300802D
:1044E00080B582B000AF78607868FFF7B1FF083719
:1044F000BD4680BDAFF30080AFF30080AFF3008016
:1045000080B500AF03F084F880BD00BFAFF300803A
:1045100080B582B000AF78607B6801221A707B683A
:1045200000225A607B6808331846FFF7B9FF7B68A2
:1045300010331846FFF7B4FF7B6818331846FFF7AF
:10454000CFFF0837BD4680BDAFF30080AFF30080DA
:1045500080B582B000AF786039607B68002B02D0F4
:104560003B68002B02D10D48FCF7C2FEFFF780FF2D
:104570007B681B78012B02D00848FCF7B9FE7B68EA
:104580003A685A60786803F0F3F87B6802221A7080
:10459000FFF776FF0837BD4680BD00BFC085010824
:1045A00080B586B000AFF860B9607A60FB68002B18
:1045B00002D0BB68002B02D11E48FCF799FEFB68B5
:1045C0001B78022B03D01B48FCF792FE21E020E071
:1045D000FFF74EFFFFF75CFF3861FB6808331846B2
:1045E0007968FFF76DFF78617B69B3F1FF3F02D116
:1045F000FFF746FF18E07B68B3F1FF3F07D0FFF7F6
:1046000047FF03463A69D31A7A6813447B60FFF781
:1046100037FFF868B96803F053F978617B69002BBC
:1046200002D07B68002BD3D17B6918461837BD4672
:1046300080BD00BFE0850108AFF30080AFF30080CC
:1046400080B582B000AF78607B68002B02D104484F
:10465000FCF74EFE786803F073F90837BD4680BD5D
:1046600000860108AFF30080AFF30080AFF3008055
:1046700080B586B000AFF860B9607A60FB68002B47
:1046800002D0BB68002B02D11E48FCF731FEFB684C
:104690001B78022B03D01B48FCF72AFE21E020E008
:1046A000FFF7E6FEFFF7F4FE3861FB6810331846AB
:1046B0007968FFF705FF78617B69B3F1FF3F02D1AD
:1046C000FFF7DEFE18E07B68B3F1FF3F07D0FFF78E
:1046D000DFFE03463A69D31A7A6813447B60FFF71A
:1046E000CFFEF868B96803F063F978617B69002B45
:1046F00002D07B68002BD3D17B6918461837BD46A2
:1047000080BD00BF20860108AFF30080AFF30080BA
:1047100080B582B000AF78607B68002B02D104487E
:10472000FCF7E6FD786803F093F90837BD4680BDD5
:1047300040860108AFF30080AFF30080AFF3008044
:1047400080B582B000AF78607B68002B02D1094849
:10475000FCF7CEFD7B681B78022B02D00548FCF7E6
:10476000C7FD786803F0ACF9034618460837BD4624
:1047700080BD00BF60860108AFF30080AFF300800A
:1047800080B483B000AF20237B607B6883F3118803
:104790000C37BD465DF8047B704700BFAFF3008067
:1047A00080B483B000AF00237B607B6883F3118803
:1047B0000C37BD465DF8047B704700BFAFF3008047
:1047C00080B500AFFFF7DCFFFEF75AF8FCF788FE74
:1047D00080BD00BFAFF30080AFF30080AFF3008077
:1047E00080B500AFFCF794FEFEF752F8094B1A684B
:1047F000084B9A420AD0074B9B699A68054B1B6885
:104800009B689A4202D20448FCF772FDFFF7C8FF8A
:1048100080BD00BF1008002000870108AFF30080B2
:1048200080B500AFFFF7CCFF80BD00BFAFF30080C5
:1048300080B500AFFFF7D4FF80BD00BFAFF30080AD
:1048400080B582B000AF78607868FDF7D1FD083799
:10485000BD4680BDAFF30080AFF30080AFF30080B2
:1048600080B584B000AF786007F10C037868082148
:104870004FF4D57203F0CCFD034683F00103DBB2A5
:10488000002B1BD07B6801221A63FB681B0A03F014
:104890000F03012B01D001232CE007F10C037868F2
:1048A0003721002203F0B4FD0346002B04D1FA683F
:1048B000124B1340002B1CD001231BE007F10C030B
:1048C00078683721002203F0A3FD0346002B04D1B2
:1048D000FA680A4B1340002B03D07B6802221A634C
:1048E00007E07B6800221A6378680021002203F049
:1048F00027FD002318461037BD4680BD08E0FFFDA8
:1049000080B586B000AF7860184B3B6100237B61B7
:1049100007F10C03786801213A6903F039FD034679
:10492000002B01D001231CE0FB68002B0CDAFB6894
:1049300003F08043002B06D07B681B6B43F0100212
:104940007B681A630CE00BE07B6901337B617B6958
:10495000632B01D9012304E06420FFF771FFD7E73F
:10496000002318461837BD4680BD00BF0080FFC039
:1049700080B586B000AF78607B681B6B03F00F03D7
:10498000012B02D1224B3B6101E0224B3B61002312
:104990007B6107F10C0378683721002203F038FDB2
:1049A0000346002B04D1FA681B4B1340002B01D0A7
:1049B000012328E007F10C03786829213A6903F004
:1049C000E7FC0346002B01D001231CE0FB68002B11
:1049D0000CDAFB6803F08043002B06D07B681B6B6E
:1049E00043F010027B681A630CE00BE07B69013333
:1049F0007B617B69632B01D9012304E06420FFF70D
:104A00001FFFC6E7002318461837BD4680BD00BF0C
:104A1000000010C00000108008E0FFFDAFF3008030
:104A200080B584B000AFB9607A603B600346FB7329
:104A3000BB68BF2B02D90B48FCF75AFC3B68072B1D
:104A400002D90848FCF754FCFB7B1A06BB681B0420
:104A50001A437B681B021A433B68134318461037FE
:104A6000BD4680BDA0860108AFF30080AFF3008093
:104A700080B584B000AF0B463A600246FA71BB7154
:104A80006FF07F43FB603B680F2B02D90D48FCF7AA
:104A90002FFCBB799B000F2202FA03F3DB43FA6879
:104AA0001340FB60BB799B003A6802FA03F3FA6893
:104AB0001343FB60FB79DA07FB6813431846103792
:104AC000BD4680BDC0860108AFF30080AFF3008013
:104AD00080B485B000AF03463960FB71FA791346A4
:104AE000DB079B1A5B000C33FB603A68FB681344DE
:104AF0001B781B029AB2FB68013339680B441B78A0
:104B000013439BB29BB218461437BD465DF8047B35
:104B1000704700BFAFF30080AFF30080AFF30080B9
:104B200080B485B000AF03463960FB713B680E333B
:104B30001B781A043B680F331B781B021A433B682F
:104B400010331B781343FB60FB799B00FA6822FA51
:104B500003F303F00F03BB60BB680F2B01D00023EE
:104B600000E0012318461437BD465DF8047B70470A
:104B7000F0B589B002AF7860396069460E464021D1
:104B80007961796901393961796908464FF0000125
:104B9000CD0045EA5075C400796908464FF0000120
:104BA000CB0043EA5073C2007B690733DB08DB00AC
:104BB000ADEB030D02AB0033FB603B6800221A70C3
:104BC0007B68183318467F217E22FFF7B9FA034627
:104BD000002B04D13B6800221A7000233EE0FB68E2
:104BE00000220092786819467A69062303F0A0FC37
:104BF0000346002B01D0012330E0FB68002019465A
:104C0000FFF766FF034603F00203002B25D00120C7
:104C100000210122FFF72CFFB860FB68BA68009200
:104C2000786819467A69062303F082FC0346002B54
:104C300001D0012312E0FB6800201946FFF770FF46
:104C4000034683F00103DBB2002B03D03B68012253
:104C50001A7002E03B6800221A700023B54618461D
:104C60001C37BD46F0BD00BFAFF30080AFF300803E
:104C700080B586B000AF786039607B68DB6A1B68FE
:104C80007B613B6800221A707B69002B01D10023F5
:104C90001CE00320B92101220023FFF7C1FE386187
:104CA00007F10C03786806213A6903F0B1FB03466B
:104CB00083F00103DBB2002B07D0FA68054B1340E9
:104CC000002B02D13B6801221A70002318461837C6
:104CD000BD4680BD08E0FFFDAFF30080AFF300806C
:104CE00080B582B000AF786039607B681B6B03F0E1
:104CF0000F03022B05D178683968FFF7B9FF034627
:104D000004E078683968FFF733FF03461846083730
:104D1000BD4680BDAFF30080AFF30080AFF30080ED
:104D200080B584B000AF78607B68DB6A1B79002BAC
:104D300001D100232EE07B68DB6A1B79012B26D191
:104D40007868012103F0CCFA7B689A6B07F10C03B9
:104D50007868372103F05CFB0346002B04D1FA6826
:104D60000E4B1340002B01D0012313E007F10C037D
:104D700078680621022203F04BFB0346002B04D186
:104D8000FA68064B1340002B03D0012302E00123F5
:104D900000E0002318461037BD4680BD08E0FFFD47
:104DA00080B584B000AF78600320B72100220023D3
:104DB000FFF736FEF8607B68DB6A1B79012B05D0B4
:104DC000022B0BD0002B11D100232CE00320B721A4
:104DD00001220023FFF724FEF8600BE00320B72137
:104DE00002220023FFF71CFEF86003E01048FCF7E6
:104DF0007FFA00BF7B68DB6A1B797868194603F08D
:104E00006FFA07F1080378680621FA6803F000FBDF
:104E10000346002B04D1BA68064B1340002B01D087
:104E2000012300E0002318461037BD4680BD00BFB7
:104E3000E086010808E0FFFDAFF30080AFF30080DB
:104E400080B584B000AF78607B689A6B07F10C0383
:104E500078680D2103F0DCFA0346002B04D1FA68D0
:104E60000D4B1340002B01D0012311E0FB685B0ABE
:104E700003F00F03042B04D0042B08D3072B06D810
:104E800001E0002304E00A20FFF7DAFCDCE701235D
:104E900018461037BD4680BD08E0FFFDAFF3008027
:104EA00080B500AF03F0B4F980BD00BFAFF3008060
:104EB00080B483B000AF78607B68094A1A607B6871
:104EC00001221A717B6800225A637B680022DA6231
:104ED0007B6800229A620C37BD465DF8047B704700
:104EE00080860108AFF30080AFF30080AFF300804D
:104EF00080B588B002AF78600023FB737B68002B1D
:104F000002D17348FCF7F4F97B681B79022B06D0B9
:104F10007B681B79052B02D06D48FCF7E9F97B68AB
:104F200003221A71786803F08BF978680021002257
:104F300003F006FA7868FFF793FC0346002B00D0D5
:104F4000BBE07B681B6B03F00F03022B06D1786874
:104F5000FFF7D6FC0346002B07D0AEE07868FFF7DA
:104F600007FD0346002B00D0A7E07B680833786874
:104F70000221002203F08CFA0346002B00D09CE0B3
:104F80007B68383378680321002203F041FA034636
:104F9000002B00D091E07B689A6B7B6818337868AF
:104FA000092103F075FA0346002B00D085E07B68E9
:104FB0009A6B07F110037868072103F029FA03467A
:104FC000002B00D079E007F10F0378681946FFF74E
:104FD00087FE0346002B00D06FE0FB7B7868194604
:104FE00003F04EF97B681B6B03F00F03022B2ED1ED
:104FF0007B68183318467F217E22FFF7A1F803460D
:10500000012B1BD97B68DB6A1B687B617B69002BEA
:1050100000D152E000230093786879694FF4007260
:10502000082303F085FA0346002B00D045E0786999
:10503000FFF71EF902467B689A6210E07B6818331E
:105040001846FFF7CDF802467B689A6207E07B6856
:1050500018331846FFF7C4F802467B689A6207F1D6
:105060001003786810214FF4007203F0D1F9034661
:10507000002B22D13A69174B1340002B1DD17B68BE
:105080001B6B03F00F03012B02D9022B08D014E095
:105090007868FFF745FE0346002B00D00DE007E0DF
:1050A0007868FFF77DFE0346002B00D005E000BFC7
:1050B0007B6805221A71002306E0786803F0F8F88F
:1050C0007B6802221A71012318461837BD4680BD3D
:1050D0001087010808E0FFFDAFF30080AFF3008008
:1050E00080B582B000AF78607B68002B02D11B488E
:1050F000FCF7FEF8FFF794FB7B681B79022B06D0C8
:105100007B681B79052B02D01448FCF7F1F87B680B
:105110001B79022B03D1FFF78BFB002319E07B687F
:1051200004221A71FFF784FB7868FFF789FE0346B3
:10513000002B07D0786803F0BBF87B6802221A7155
:10514000012306E0786803F0B3F87B6802221A7145
:10515000002318460837BD4680BD00BF20870108E0
:1051600080B586B000AFF860B9607A603B60FB68DC
:10517000002B05D07B68002B02D03B68002B02D1AE
:105180001648FCF7B5F8FB681B79052B02D01348CD
:10519000FCF7AEF8BA683B6813445A1EFB689B6A7A
:1051A0009A4207D9FB685B6B43F08002FB685A6345
:1051B00001230EE0FB6806221A71F868B9687A6864
:1051C0003B6803F0E5FA0346FB75FB6805221A719C
:1051D000FB7D18461837BD4680BD00BF30870108EB
:1051E00080B586B000AFF860B9607A603B60FB685C
:1051F000002B05D07B68002B02D03B68002B02D12E
:105200001648FCF775F8FB681B79052B02D013488C
:10521000FCF76EF8BA683B6813445A1EFB689B6A39
:105220009A4207D9FB685B6B43F08002FB685A63C4
:1052300001230EE0FB6807221A71F868B9687A68E2
:105240003B6803F0EDFA0346FB75FB6805221A7113
:10525000FB7D18461837BD4680BD00BF408701085A
:1052600080B584B000AF78607B68002B02D10C4819
:10527000FCF73EF87B681B79052B01D001230BE07E
:105280007B6808221A71786803F012FB0346FB73EF
:105290007B6805221A71FB7B18461037BD4680BD1E
:1052A00050870108AFF30080AFF30080AFF30080B8
:1052B00080B582B000AF786039607B68002B02D087
:1052C0003B68002B02D10B48FCF712F87B681B7976
:1052D000052B01D0012308E07B689A6A3B685A607D
:1052E0003B684FF400721A60002318460837BD4629
:1052F00080BD00BF60870108AFF30080AFF300807E
:1053000080B483B000AF78607B687A681A600C372D
:10531000BD465DF8047B7047AFF30080AFF30080BB
:1053200080B582B000AF7860FCF77AF97B689B6843
:10533000002B14BF00230123DBB218460837BD46FB
:1053400080BD00BFAFF30080AFF30080AFF30080FB
:1053500080B582B000AF78607868FFF7D1FF08377A
:10536000BD4680BDAFF30080AFF30080AFF3008097
:1053700080B582B000AF7860396078683968FDF731
:1053800077FF0837BD4680BDAFF30080AFF30080E4
:1053900080B584B000AFF860B9607A60FB683033E4
:1053A0001846B9687A684FF0FF33FEF7F9FB0346F9
:1053B00018461037BD4680BDAFF30080AFF30080C4
:1053C00080B584B000AFF860B9607A60FB680C33D8
:1053D0001846B9687A684FF0FF33FEF7E1FA0346E2
:1053E00018461037BD4680BDAFF30080AFF3008094
:1053F00080B582B000AF78600B46FB707B6803F12C
:105400003002FB78104619464FF0FF32FEF750FB92
:10541000034618460837BD4680BD00BFAFF3008085
:1054200080B582B000AF78607B680C3318464FF0CF
:10543000FF31FEF76DFA034618460837BD4680BDBA
:1054400080B584B000AFF8600B467A60FB72FB68F1
:1054500003F13002FB7A104619467A68FEF728FB02
:10546000034618461037BD4680BD00BFAFF300802D
:1054700080B582B000AF786039607B680C33184625
:105480003968FEF745FA034618460837BD4680BD21
:1054900080B584B000AFF860B9607A603B60FB68AB
:1054A00030331846B9687A683B68FEF779FB0346E3
:1054B00018461037BD4680BDAFF30080AFF30080C3
:1054C00080B584B000AFF860B9607A603B60FB687B
:1054D0000C331846B9687A683B68FEF761FA0346F0
:1054E00018461037BD4680BDAFF30080AFF3008093
:1054F00080B500AF04F0ECFA80BD00BFAFF30080D0
:1055000080B586B002AFF860B9607A60FB68154A72
:105510001A60FB6804331846FFF71AFFFB68012284
:105520001A72FB6803F10C02FB685433F9680091AE
:10553000104619464FF48052BB68FEF789F9FB68A4
:1055400003F13002FB6803F582531433F9680091CC
:10555000104619464FF480527B68FEF781FA1037E7
:10556000BD4680BD70870108AFF30080AFF30080B7
:1055700080B582B000AF78600B46FB70FCF750F846
:105580007B68002B02D11248FBF7B2FE7B680C331C
:105590001846FFF7C5FE0346002B05D07B68043391
:1055A00018460421FFF7E4FE7B6803F10C02FB7848
:1055B00010461946FEF774F90346002B05DA7B689E
:1055C000043318468021FFF7D3FE0837BD4680BD5F
:1055D00090870108AFF30080AFF30080AFF3008045
:1055E00080B582B000AF78607868FDF781FC08373D
:1055F000BD4680BDAFF30080AFF30080AFF3008005
:1056000080B500AF03F0C4FF80BD00BFAFF30080E2
:1056100080B582B000AF78607B6801221A707B6829
:1056200000225A607B6800229A607B680C3318461F
:10563000FFF7D6FF0837BD4680BD00BFAFF300803F
:1056400080B483B000AF78604FF080437A685A63CB
:105650004FF0804300221A614FF080430222DA604B
:105660000C37BD465DF8047B704700BFAFF3008088
:1056700080B400AF4FF080430022DA60BD465DF891
:10568000047B7047AFF30080AFF30080AFF300807E
:1056900080B483B000AF78604FF080437A685A637B
:1056A0000C37BD465DF8047B704700BFAFF3008048
:1056B00080B400AF4FF08043DB6803F00203002B9F
:1056C0000CBF00230123DBB21846BD465DF8047B06
:1056D000704700BFAFF30080AFF30080AFF30080EE
:1056E00080B500AF04F004F880BD00BFAFF30080C8
:1056F00080B582B000AF7860FFF7DAFF0346002B79
:1057000002D00448FBF7F4FD7868FFF799FF0837EB
:10571000BD4680BDA0870108AFF30080AFF30080D5
:1057200080B500AFFFF7A4FF80BD00BFAFF30080DE
:1057300080B582B000AF7860FFF7BAFF034683F010
:105740000103DBB2002B02D00448FBF7D1FD7868DF
:10575000FFF79EFF0837BD4680BD00BFB087010838
:1057600080B483B000AF20237B607B6883F3118813
:105770000C37BD465DF8047B704700BFAFF3008077
:1057800080B483B000AF00237B607B6883F3118813
:105790000C37BD465DF8047B704700BFAFF3008057
:1057A00080B500AFFFF7DCFF80BD00BFAFF3008026
:1057B00080B500AFFFF7E4FF80BD00BFAFF300800E
:1057C00080B500AFFFF7ECFFFDF76AF8FBF7B8FE16
:1057D00080BD00BFAFF30080AFF30080AFF3008067
:1057E00080B500AFFBF7C4FEFDF762F8FFF7E0FFFE
:1057F00080BD00BFAFF30080AFF30080AFF3008047
:1058000080B500AFFFF7DCFF80BD00BFAFF30080C5
:1058100080B500AFFFF7E4FF80BD00BFAFF30080AD
:1058200080B485B000AF78607B685A1C7A601B78C2
:10583000FB817B681B781B029AB2FB8913439BB2E6
:10584000FB81FB8918461437BD465DF8047B704721
:1058500080B582B000AF78607B6893F85E207B688B
:1058600083F86620786803F0A3FC7B685B681B689C
:10587000002B05D07B685B681B687868012198471E
:105880007B6803221A700837BD4680BDAFF30080E5
:10589000F0B585B000AF78607B6893F85C3003F0BA
:1058A0007F027B6893F85D301B021343B3F5407FA2
:1058B0005AD0B3F5407F12D8022B00F0EE80022BB5
:1058C00005D8002B28D0012B00F0DC80A6E1B3F531
:1058D000807F2ED0B3F5817F00F036819EE1B3F555
:1058E000C06F74D0B3F5C06F08D840F20232934253
:1058F00000F05F81B3F5A06F51D08FE1B3F5106F69
:1059000000F0988040F60242934200F0BB80B3F56D
:10591000006F00F0828081E17B6803F164027B68A4
:105920001A657B6802225A657B6800229A6501230A
:1059300075E17B6893F85E30012B13D17B68B3F877
:10594000643023F002039AB27B68A3F864207B687A
:1059500000221A657B6800225A657B6800229A65DE
:1059600001235CE100235AE17B6893F85E30012B50
:1059700013D17B68B3F8643043F002039AB27B68BA
:10598000A3F864207B6800221A657B6800225A65B0
:105990007B6800229A65012341E100233FE17B6897
:1059A00093F85C30002B07D17B6893F85D30052BB2
:1059B00002D17868FFF74CFF7B6800221A657B688C
:1059C00000225A657B6800229A65012327E17B68E3
:1059D0005B685C687B6893F85F607B6893F85E50F7
:1059E0007B6860331846FFF71BFF03467868314633
:1059F0002A46A047F860FB68002B01D100230EE186
:105A0000FB685A687B681A65FB681A687B685A6588
:105A10007B6800229A65012301E17B6803F167023C
:105A20007B681A657B6801225A657B6800229A654B
:105A30000123F4E07B6893F85E207B6883F867209D
:105A40007B6893F86730002B03D17B6803221A70C0
:105A500002E07B6804221A707B685B681B68002B7D
:105A600005D07B685B681B687868022198477B6873
:105A700000221A657B6800225A657B6800229A65BD
:105A80000123CCE07B68684A1A657B6802225A656C
:105A90007B6800229A650123C1E07B6893F860303F
:105AA000DBB25BB2002B27DA7B6893F8603003F03F
:105AB0000F03DBB27868194603F0C2FB0346012BE3
:105AC00002D0022B0BD015E07B68584A1A657B6820
:105AD00002225A657B6800229A6501239FE07B6859
